{
  "contractName": "PriorityQueue",
  "abi": [
    {
      "constant": true,
      "inputs": [],
      "name": "currentSize",
      "outputs": [
        {
          "name": "",
          "type": "uint256"
        }
      ],
      "payable": false,
      "stateMutability": "view",
      "type": "function"
    },
    {
      "inputs": [
        {
          "name": "_contract",
          "type": "address"
        }
      ],
      "payable": false,
      "stateMutability": "nonpayable",
      "type": "constructor"
    },
    {
      "constant": false,
      "inputs": [
        {
          "name": "_priority",
          "type": "uint256"
        },
        {
          "name": "_value",
          "type": "uint256"
        }
      ],
      "name": "insert",
      "outputs": [],
      "payable": false,
      "stateMutability": "nonpayable",
      "type": "function"
    },
    {
      "constant": true,
      "inputs": [],
      "name": "getMin",
      "outputs": [
        {
          "name": "",
          "type": "uint256"
        },
        {
          "name": "",
          "type": "uint256"
        }
      ],
      "payable": false,
      "stateMutability": "view",
      "type": "function"
    },
    {
      "constant": false,
      "inputs": [],
      "name": "delMin",
      "outputs": [
        {
          "name": "",
          "type": "uint256"
        },
        {
          "name": "",
          "type": "uint256"
        }
      ],
      "payable": false,
      "stateMutability": "nonpayable",
      "type": "function"
    }
  ],
  "bytecode": "0x608060405234801561001057600080fd5b5060405160208061096383398101806040528101908080519060200190929190505050806000806101000a81548173ffffffffffffffffffffffffffffffffffffffff021916908373ffffffffffffffffffffffffffffffffffffffff160217905550602060405190810160405280600060ff1681525060019060016100979291906100a6565b5060006002819055505061011d565b8280548282559060005260206000209081019282156100e7579160200282015b828111156100e6578251829060ff169055916020019190600101906100c6565b5b5090506100f491906100f8565b5090565b61011a91905b808211156101165760008160009055506001016100fe565b5090565b90565b6108378061012c6000396000f300608060405260043610610062576000357c0100000000000000000000000000000000000000000000000000000000900463ffffffff1680631d834a1b14610067578063b07576ac1461009e578063bda1504b146100d0578063d6362e97146100fb575b600080fd5b34801561007357600080fd5b5061009c600480360381019080803590602001909291908035906020019092919050505061012d565b005b3480156100aa57600080fd5b506100b3610257565b604051808381526020018281526020019250505060405180910390f35b3480156100dc57600080fd5b506100e56103f2565b6040518082815260200191505060405180910390f35b34801561010757600080fd5b506101106103f8565b604051808381526020018281526020019250505060405180910390f35b60008060009054906101000a900473ffffffffffffffffffffffffffffffffffffffff1673ffffffffffffffffffffffffffffffffffffffff163373ffffffffffffffffffffffffffffffffffffffff161415156101f3576040517f08c379a00000000000000000000000000000000000000000000000000000000081526004018080602001828103825260158152602001807f53656e646572206d757374206265206f776e65722e000000000000000000000081525060200191505060405180910390fd5b816080849060020a021790506001819080600181540180825580915050906001820390600052602060002001600090919290919091505550610241600160025461042590919063ffffffff16565b600281905550610252600254610443565b505050565b60008060008060009054906101000a900473ffffffffffffffffffffffffffffffffffffffff1673ffffffffffffffffffffffffffffffffffffffff163373ffffffffffffffffffffffffffffffffffffffff16141515610320576040517f08c379a00000000000000000000000000000000000000000000000000000000081526004018080602001828103825260158152602001807f53656e646572206d757374206265206f776e65722e000000000000000000000081525060200191505060405180910390fd5b60018081548110151561032f57fe5b90600052602060002001549050600160025481548110151561034d57fe5b906000526020600020015460018081548110151561036757fe5b9060005260206000200181905550600160025481548110151561038657fe5b90600052602060002001600090556103aa600160025461053290919063ffffffff16565b6002819055506103ba600161054b565b6103d26001808054905061053290919063ffffffff16565b6001816103df91906107ba565b506103e981610627565b92509250509091565b60025481565b60008061041d60018081548110151561040d57fe5b9060005260206000200154610627565b915091509091565b600080828401905083811015151561043957fe5b8091505092915050565b600080600083925082915060018381548110151561045d57fe5b906000526020600020015490505b600161048160028561065a90919063ffffffff16565b81548110151561048d57fe5b90600052602060002001548110156105045760016104b560028561065a90919063ffffffff16565b8154811015156104c157fe5b90600052602060002001546001848154811015156104db57fe5b90600052602060002001819055506104fd60028461065a90919063ffffffff16565b925061046b565b818314151561052c578060018481548110151561051d57fe5b90600052602060002001819055505b50505050565b600082821115151561054057fe5b818303905092915050565b60008060008084935083925060018481548110151561056657fe5b9060005260206000200154915061057c84610675565b90505b60025481111580156105a9575060018181548110151561059b57fe5b906000526020600020015482115b156105f8576001818154811015156105bd57fe5b90600052602060002001546001858154811015156105d757fe5b90600052602060002001819055508093506105f184610675565b905061057f565b8284141515610620578160018581548110151561061157fe5b90600052602060002001819055505b5050505050565b6000806000806080859060020a90049150846fffffffffffffffffffffffffffffffff1690508181935093505050915091565b600080828481151561066857fe5b0490508091505092915050565b60006002546106a1600161069360028661077f90919063ffffffff16565b61042590919063ffffffff16565b11156106c2576106bb60028361077f90919063ffffffff16565b905061077a565b60016106eb60016106dd60028661077f90919063ffffffff16565b61042590919063ffffffff16565b8154811015156106f757fe5b9060005260206000200154600161071860028561077f90919063ffffffff16565b81548110151561072457fe5b906000526020600020015410156107505761074960028361077f90919063ffffffff16565b905061077a565b610777600161076960028561077f90919063ffffffff16565b61042590919063ffffffff16565b90505b919050565b600080600084141561079457600091506107b3565b82840290508284828115156107a557fe5b041415156107af57fe5b8091505b5092915050565b8154818355818111156107e1578183600052602060002091820191016107e091906107e6565b5b505050565b61080891905b808211156108045760008160009055506001016107ec565b5090565b905600a165627a7a7230582049a2c99ace88910a447b2bc028265219f9c5fba8a4222a53bd7d9c92a337a7d80029",
  "source": "pragma solidity ^0.4.0;\r\n\r\nimport \"./SafeMath.sol\";\r\n\r\n\r\n/**\r\n * @title PriorityQueue\r\n * @dev A priority queue implementation.\r\n */\r\ncontract PriorityQueue {\r\n    using SafeMath for uint256;\r\n\r\n    /* \r\n     *  Storage\r\n     */\r\n\r\n    address owner;\r\n    uint256[] heapList;\r\n    uint256 public currentSize;\r\n\r\n\r\n    /*\r\n     *  Modifiers\r\n     */\r\n\r\n    modifier onlyOwner() {\r\n        require(msg.sender == owner, \"Sender must be owner.\");\r\n        _;\r\n    }\r\n\r\n\r\n    /*\r\n     * Constructor\r\n     */\r\n\r\n    constructor(address _contract) public {\r\n        owner = _contract;\r\n        heapList = [0];\r\n        currentSize = 0;\r\n    }\r\n\r\n\r\n    /*\r\n     * Internal functions\r\n     */\r\n\r\n    /**\r\n     * @dev Inserts an element into the priority queue.\r\n     * @param _priority Priority to insert.\r\n     * @param _value Some additional value.\r\n     */\r\n    function insert(uint256 _priority, uint256 _value) public onlyOwner {\r\n        uint256 element = _priority << 128 | _value;\r\n        heapList.push(element);\r\n        currentSize = currentSize.add(1);\r\n        _percUp(currentSize);\r\n    }\r\n\r\n    /**\r\n     * @dev Returns the top element of the heap.\r\n     * @return The smallest element in the priority queue.\r\n     */\r\n    function getMin() public view returns (uint256, uint256) {\r\n        return _splitElement(heapList[1]);\r\n    }\r\n\r\n    /**\r\n     * @dev Deletes the top element of the heap and shifts everything up.\r\n     * @return The smallest element in the priorty queue.\r\n     */\r\n    function delMin() public onlyOwner returns (uint256, uint256) {\r\n        uint256 retVal = heapList[1];\r\n        heapList[1] = heapList[currentSize];\r\n        delete heapList[currentSize];\r\n        currentSize = currentSize.sub(1);\r\n        _percDown(1);\r\n        heapList.length = heapList.length.sub(1);\r\n        return _splitElement(retVal);\r\n    }\r\n\r\n\r\n    /*\r\n     * Private functions\r\n     */\r\n\r\n    /**\r\n     * @dev Determines the minimum child of a given node in the tree.\r\n     * @param _index Index of the node in the tree.\r\n     * @return The smallest child node.\r\n     */\r\n    function _minChild(uint256 _index) private view returns (uint256) {\r\n        if (_index.mul(2).add(1) > currentSize) {\r\n            return _index.mul(2);\r\n        } else {\r\n            if (heapList[_index.mul(2)] < heapList[_index.mul(2).add(1)]) {\r\n                return _index.mul(2);\r\n            } else {\r\n                return _index.mul(2).add(1);\r\n            }\r\n        }\r\n    }\r\n\r\n    /**\r\n     * @dev Bubbles the element at some index up.\r\n     */\r\n    function _percUp(uint256 _index) private {\r\n        uint256 index = _index;\r\n        uint256 j = index;\r\n        uint256 newVal = heapList[index];\r\n        while (newVal < heapList[index.div(2)]) {\r\n            heapList[index] = heapList[index.div(2)];\r\n            index = index.div(2);\r\n        }\r\n        if (index != j) heapList[index] = newVal;\r\n    }\r\n\r\n    /**\r\n     * @dev Bubbles the element at some index down.\r\n     */\r\n    function _percDown(uint256 _index) private {\r\n        uint256 index = _index;\r\n        uint256 j = index;\r\n        uint256 newVal = heapList[index];\r\n        uint256 mc = _minChild(index);\r\n        while (mc <= currentSize && newVal > heapList[mc]) {\r\n            heapList[index] = heapList[mc];\r\n            index = mc;\r\n            mc = _minChild(index);\r\n        }\r\n        if (index != j) heapList[index] = newVal;\r\n    }\r\n\r\n    /**\r\n     * @dev Split an element into its priority and value.\r\n     * @param _element Element to decode.\r\n     * @return A tuple containing the priority and value.\r\n     */\r\n    function _splitElement(uint256 _element) private pure returns (uint256, uint256) {\r\n        uint256 priority = _element >> 128;\r\n        uint256 value = uint256(uint128(_element));\r\n        return (priority, value);\r\n    }\r\n}\r\n",
  "sourcePath": "C:\\company\\code\\tpe\\contracts\\PriorityQueue.sol",
  "compiler": {
    "name": "solc",
    "version": "0.4.24+commit.e67f0147.Emscripten.clang"
  },
  "schemaVersion": "2.0.1",
  "updatedAt": "2018-10-07T06:40:51.603Z"
}