{
  "contractName": "RootChain",
  "abi": [
    {
      "constant": true,
      "inputs": [
        {
          "name": "",
          "type": "uint256"
        }
      ],
      "name": "exits",
      "outputs": [
        {
          "name": "owner",
          "type": "address"
        },
        {
          "name": "token",
          "type": "address"
        },
        {
          "name": "plasmaToken",
          "type": "address"
        },
        {
          "name": "amount",
          "type": "uint256"
        }
      ],
      "payable": false,
      "stateMutability": "view",
      "type": "function"
    },
    {
      "constant": true,
      "inputs": [],
      "name": "operator",
      "outputs": [
        {
          "name": "",
          "type": "address"
        }
      ],
      "payable": false,
      "stateMutability": "view",
      "type": "function"
    },
    {
      "constant": true,
      "inputs": [],
      "name": "currentChildBlock",
      "outputs": [
        {
          "name": "",
          "type": "uint256"
        }
      ],
      "payable": false,
      "stateMutability": "view",
      "type": "function"
    },
    {
      "constant": true,
      "inputs": [],
      "name": "CHILD_BLOCK_INTERVAL",
      "outputs": [
        {
          "name": "",
          "type": "uint256"
        }
      ],
      "payable": false,
      "stateMutability": "view",
      "type": "function"
    },
    {
      "constant": true,
      "inputs": [],
      "name": "currentDepositBlock",
      "outputs": [
        {
          "name": "",
          "type": "uint256"
        }
      ],
      "payable": false,
      "stateMutability": "view",
      "type": "function"
    },
    {
      "constant": true,
      "inputs": [
        {
          "name": "",
          "type": "uint256"
        }
      ],
      "name": "plasmaBlocks",
      "outputs": [
        {
          "name": "root",
          "type": "bytes32"
        },
        {
          "name": "timestamp",
          "type": "uint256"
        }
      ],
      "payable": false,
      "stateMutability": "view",
      "type": "function"
    },
    {
      "constant": true,
      "inputs": [],
      "name": "currentFeeExit",
      "outputs": [
        {
          "name": "",
          "type": "uint256"
        }
      ],
      "payable": false,
      "stateMutability": "view",
      "type": "function"
    },
    {
      "constant": true,
      "inputs": [
        {
          "name": "",
          "type": "address"
        }
      ],
      "name": "exitsQueues",
      "outputs": [
        {
          "name": "",
          "type": "address"
        }
      ],
      "payable": false,
      "stateMutability": "view",
      "type": "function"
    },
    {
      "constant": true,
      "inputs": [],
      "name": "EXIT_BOND",
      "outputs": [
        {
          "name": "",
          "type": "uint256"
        }
      ],
      "payable": false,
      "stateMutability": "view",
      "type": "function"
    },
    {
      "constant": true,
      "inputs": [
        {
          "name": "",
          "type": "address"
        }
      ],
      "name": "openWithdrawalIndex",
      "outputs": [
        {
          "name": "",
          "type": "uint256"
        }
      ],
      "payable": false,
      "stateMutability": "view",
      "type": "function"
    },
    {
      "constant": true,
      "inputs": [],
      "name": "ETHEREUM",
      "outputs": [
        {
          "name": "",
          "type": "address"
        }
      ],
      "payable": false,
      "stateMutability": "view",
      "type": "function"
    },
    {
      "inputs": [],
      "payable": false,
      "stateMutability": "nonpayable",
      "type": "constructor"
    },
    {
      "anonymous": false,
      "inputs": [
        {
          "indexed": true,
          "name": "depositor",
          "type": "address"
        },
        {
          "indexed": true,
          "name": "depositBlock",
          "type": "uint256"
        },
        {
          "indexed": false,
          "name": "token",
          "type": "address"
        },
        {
          "indexed": false,
          "name": "amount",
          "type": "uint256"
        }
      ],
      "name": "Deposit",
      "type": "event"
    },
    {
      "anonymous": false,
      "inputs": [
        {
          "indexed": true,
          "name": "exitor",
          "type": "address"
        },
        {
          "indexed": true,
          "name": "utxoPos",
          "type": "uint256"
        },
        {
          "indexed": false,
          "name": "new_token",
          "type": "address"
        },
        {
          "indexed": false,
          "name": "token",
          "type": "address"
        },
        {
          "indexed": false,
          "name": "amount",
          "type": "uint256"
        }
      ],
      "name": "ExitStarted",
      "type": "event"
    },
    {
      "anonymous": false,
      "inputs": [
        {
          "indexed": false,
          "name": "root",
          "type": "bytes32"
        },
        {
          "indexed": false,
          "name": "timestamp",
          "type": "uint256"
        }
      ],
      "name": "BlockSubmitted",
      "type": "event"
    },
    {
      "anonymous": false,
      "inputs": [
        {
          "indexed": false,
          "name": "token",
          "type": "address"
        }
      ],
      "name": "TokenAdded",
      "type": "event"
    },
    {
      "constant": false,
      "inputs": [
        {
          "name": "_target",
          "type": "address"
        }
      ],
      "name": "setTarget",
      "outputs": [],
      "payable": false,
      "stateMutability": "nonpayable",
      "type": "function"
    },
    {
      "constant": false,
      "inputs": [
        {
          "name": "_priority",
          "type": "address"
        }
      ],
      "name": "setPriority",
      "outputs": [],
      "payable": false,
      "stateMutability": "nonpayable",
      "type": "function"
    },
    {
      "constant": false,
      "inputs": [
        {
          "name": "_root",
          "type": "bytes32"
        }
      ],
      "name": "submitBlock",
      "outputs": [],
      "payable": false,
      "stateMutability": "nonpayable",
      "type": "function"
    },
    {
      "constant": false,
      "inputs": [],
      "name": "deposit",
      "outputs": [],
      "payable": true,
      "stateMutability": "payable",
      "type": "function"
    },
    {
      "constant": false,
      "inputs": [
        {
          "name": "_depositPos",
          "type": "uint256"
        },
        {
          "name": "_token",
          "type": "address"
        },
        {
          "name": "_amount",
          "type": "uint256"
        }
      ],
      "name": "startDepositExit",
      "outputs": [],
      "payable": true,
      "stateMutability": "payable",
      "type": "function"
    },
    {
      "constant": false,
      "inputs": [
        {
          "name": "_token",
          "type": "address"
        },
        {
          "name": "_amount",
          "type": "uint256"
        }
      ],
      "name": "startFeeExit",
      "outputs": [],
      "payable": true,
      "stateMutability": "payable",
      "type": "function"
    },
    {
      "constant": false,
      "inputs": [
        {
          "name": "_utxoPos",
          "type": "uint256"
        },
        {
          "name": "_txBytes",
          "type": "bytes"
        },
        {
          "name": "_proof",
          "type": "bytes"
        },
        {
          "name": "_sigs",
          "type": "bytes"
        }
      ],
      "name": "startExit",
      "outputs": [],
      "payable": true,
      "stateMutability": "payable",
      "type": "function"
    },
    {
      "constant": false,
      "inputs": [
        {
          "name": "_cUtxoPos",
          "type": "uint256"
        },
        {
          "name": "_eUtxoIndex",
          "type": "uint256"
        },
        {
          "name": "_txBytes",
          "type": "bytes"
        },
        {
          "name": "_proof",
          "type": "bytes"
        },
        {
          "name": "_sigs",
          "type": "bytes"
        },
        {
          "name": "_confirmationSig",
          "type": "bytes"
        }
      ],
      "name": "challengeExit",
      "outputs": [],
      "payable": false,
      "stateMutability": "nonpayable",
      "type": "function"
    },
    {
      "constant": true,
      "inputs": [
        {
          "name": "_token",
          "type": "address"
        }
      ],
      "name": "getNextExit",
      "outputs": [
        {
          "name": "",
          "type": "uint256"
        },
        {
          "name": "",
          "type": "uint256"
        }
      ],
      "payable": false,
      "stateMutability": "view",
      "type": "function"
    },
    {
      "constant": false,
      "inputs": [
        {
          "name": "_token",
          "type": "address"
        },
        {
          "name": "_withdrawalMax",
          "type": "uint256"
        }
      ],
      "name": "finalizeExits",
      "outputs": [],
      "payable": false,
      "stateMutability": "nonpayable",
      "type": "function"
    },
    {
      "constant": true,
      "inputs": [
        {
          "name": "_blockNumber",
          "type": "uint256"
        }
      ],
      "name": "getPlasmaBlock",
      "outputs": [
        {
          "name": "",
          "type": "bytes32"
        },
        {
          "name": "",
          "type": "uint256"
        }
      ],
      "payable": false,
      "stateMutability": "view",
      "type": "function"
    },
    {
      "constant": true,
      "inputs": [],
      "name": "getDepositBlock",
      "outputs": [
        {
          "name": "",
          "type": "uint256"
        }
      ],
      "payable": false,
      "stateMutability": "view",
      "type": "function"
    },
    {
      "constant": true,
      "inputs": [
        {
          "name": "_utxoPos",
          "type": "uint256"
        }
      ],
      "name": "getExit",
      "outputs": [
        {
          "name": "",
          "type": "address"
        },
        {
          "name": "",
          "type": "address"
        },
        {
          "name": "",
          "type": "uint256"
        }
      ],
      "payable": false,
      "stateMutability": "view",
      "type": "function"
    }
  ],
  "bytecode": "0x608060405234801561001057600080fd5b50336000806101000a81548173ffffffffffffffffffffffffffffffffffffffff021916908373ffffffffffffffffffffffffffffffffffffffff1602179055506103e860018190555060016002819055506001600381905550613f19806100796000396000f30060806040526004361061013e576000357c0100000000000000000000000000000000000000000000000000000000900463ffffffff1680631c91a6b91461014357806332773ba314610235578063342de1791461038457806340b8d53a1461045e578063570ca7351461049e578063776d1a01146104f55780637a95f1e81461053857806386972254146105635780638bfe0aec146105b3578063a831fa0714610611578063a85c682a1461063c578063a98c7f2c14610689578063b2153e6b146106b4578063baa4769414610704578063bcd5926114610735578063cfe7d85514610760578063d0e30db01461078b578063d11f045c14610795578063de5a9f0914610818578063e60f1ff114610843578063eadca9b8146108ea578063f7cdf47c14610941578063f7fd1d1314610998578063f82f7a4b146109db575b600080fd5b61023360048036038101908080359060200190929190803590602001908201803590602001908080601f0160208091040260200160405190810160405280939291908181526020018383808284378201915050505050509192919290803590602001908201803590602001908080601f0160208091040260200160405190810160405280939291908181526020018383808284378201915050505050509192919290803590602001908201803590602001908080601f0160208091040260200160405190810160405280939291908181526020018383808284378201915050505050509192919290505050610a25565b005b34801561024157600080fd5b506103826004803603810190808035906020019092919080359060200190929190803590602001908201803590602001908080601f0160208091040260200160405190810160405280939291908181526020018383808284378201915050505050509192919290803590602001908201803590602001908080601f0160208091040260200160405190810160405280939291908181526020018383808284378201915050505050509192919290803590602001908201803590602001908080601f0160208091040260200160405190810160405280939291908181526020018383808284378201915050505050509192919290803590602001908201803590602001908080601f0160208091040260200160405190810160405280939291908181526020018383808284378201915050505050509192919290505050610e82565b005b34801561039057600080fd5b506103af60048036038101908080359060200190929190505050611246565b604051808573ffffffffffffffffffffffffffffffffffffffff1673ffffffffffffffffffffffffffffffffffffffff1681526020018473ffffffffffffffffffffffffffffffffffffffff1673ffffffffffffffffffffffffffffffffffffffff1681526020018373ffffffffffffffffffffffffffffffffffffffff1673ffffffffffffffffffffffffffffffffffffffff16815260200182815260200194505050505060405180910390f35b61049c600480360381019080803573ffffffffffffffffffffffffffffffffffffffff169060200190929190803590602001909291905050506112d6565b005b3480156104aa57600080fd5b506104b3611449565b604051808273ffffffffffffffffffffffffffffffffffffffff1673ffffffffffffffffffffffffffffffffffffffff16815260200191505060405180910390f35b34801561050157600080fd5b50610536600480360381019080803573ffffffffffffffffffffffffffffffffffffffff16906020019092919050505061146e565b005b34801561054457600080fd5b5061054d61150f565b6040518082815260200191505060405180910390f35b34801561056f57600080fd5b5061058e60048036038101908080359060200190929190505050611515565b6040518083600019166000191681526020018281526020019250505060405180910390f35b3480156105bf57600080fd5b506105f4600480360381019080803573ffffffffffffffffffffffffffffffffffffffff16906020019092919050505061154f565b604051808381526020018281526020019250505060405180910390f35b34801561061d57600080fd5b50610626611662565b6040518082815260200191505060405180910390f35b34801561064857600080fd5b50610687600480360381019080803573ffffffffffffffffffffffffffffffffffffffff16906020019092919080359060200190929190505050611668565b005b34801561069557600080fd5b5061069e611e1f565b6040518082815260200191505060405180910390f35b3480156106c057600080fd5b506106df60048036038101908080359060200190929190505050611e25565b6040518083600019166000191681526020018281526020019250505060405180910390f35b34801561071057600080fd5b506107336004803603810190808035600019169060200190929190505050611e49565b005b34801561074157600080fd5b5061074a611fc7565b6040518082815260200191505060405180910390f35b34801561076c57600080fd5b50610775611ff9565b6040518082815260200191505060405180910390f35b610793611fff565b005b3480156107a157600080fd5b506107d6600480360381019080803573ffffffffffffffffffffffffffffffffffffffff16906020019092919050505061227f565b604051808273ffffffffffffffffffffffffffffffffffffffff1673ffffffffffffffffffffffffffffffffffffffff16815260200191505060405180910390f35b34801561082457600080fd5b5061082d6122b2565b6040518082815260200191505060405180910390f35b34801561084f57600080fd5b5061086e600480360381019080803590602001909291905050506122ba565b604051808473ffffffffffffffffffffffffffffffffffffffff1673ffffffffffffffffffffffffffffffffffffffff1681526020018373ffffffffffffffffffffffffffffffffffffffff1673ffffffffffffffffffffffffffffffffffffffff168152602001828152602001935050505060405180910390f35b3480156108f657600080fd5b5061092b600480360381019080803573ffffffffffffffffffffffffffffffffffffffff169060200190929190505050612351565b6040518082815260200191505060405180910390f35b34801561094d57600080fd5b50610956612369565b604051808273ffffffffffffffffffffffffffffffffffffffff1673ffffffffffffffffffffffffffffffffffffffff16815260200191505060405180910390f35b3480156109a457600080fd5b506109d9600480360381019080803573ffffffffffffffffffffffffffffffffffffffff16906020019092919050505061236e565b005b610a2360048036038101908080359060200190929190803573ffffffffffffffffffffffffffffffffffffffff16906020019092919080359060200190929190505050612489565b005b6000806000610a32613da8565b60008063499602d28034141515610ab1576040517f08c379a00000000000000000000000000000000000000000000000000000000081526004018080602001828103825260178152602001807f496e76616c69642061747461636865642076616c75652e00000000000000000081525060200191505060405180910390fd5b633b9aca008b811515610ac057fe5b049650612710633b9aca008c811515610ad557fe5b06811515610adf57fe5b0495506127108602633b9aca0088028c03039450610b06858b61275090919063ffffffff16565b9350836000015173ffffffffffffffffffffffffffffffffffffffff163373ffffffffffffffffffffffffffffffffffffffff16141515610baf576040517f08c379a00000000000000000000000000000000000000000000000000000000081526004018080602001828103825260168152602001807f53656e646572206d75737420626520657869746f722e0000000000000000000081525060200191505060405180910390fd5b60046000888152602001908152602001600020600001549250896040518082805190602001908083835b602083101515610bfe5780518252602082019150602081019050602083039250610bd9565b6001836020036101000a0380198251168184511680821785525050505050509050019150506040518091039020610c388960006082612870565b60405180836000191660001916815260200182805190602001908083835b602083101515610c7b5780518252602082019150602081019050602083039250610c56565b6001836020036101000a0380198251168184511680821785525050505050509050019250505060405180910390209150610d1d8a6040518082805190602001908083835b602083101515610ce45780518252602082019150602081019050602083039250610cbf565b6001836020036101000a03801982511681845116808217855250505050505090500191505060405180910390208486606001518b61298c565b1515610d91576040517f08c379a00000000000000000000000000000000000000000000000000000000081526004018080602001828103825260168152602001807f5369676e617475726573206d757374206d617463682e0000000000000000000081525060200191505060405180910390fd5b610dac86848b8560001916612b4c909392919063ffffffff16565b1515610e46576040517f08c379a00000000000000000000000000000000000000000000000000000000081526004018080602001828103825260248152602001807f5472616e73616374696f6e204d65726b6c652070726f6f6620697320696e766181526020017f6c69642e0000000000000000000000000000000000000000000000000000000081525060400191505060405180910390fd5b610e758b856000015186602001518760400151600460008d815260200190815260200160002060010154612d79565b5050505050505050505050565b6000806000806000806000610ea08c8c61342290919063ffffffff16565b9650612710633b9aca008e811515610eb457fe5b06811515610ebe57fe5b04955060046000633b9aca008f811515610ed457fe5b0481526020019081526020016000206000015494508a6040518082805190602001908083835b602083101515610f1f5780518252602082019150602081019050602083039250610efa565b6001836020036101000a03801982511681845116808217855250505050505090500191505060405180910390209350838560405180836000191660001916815260200182600019166000191681526020019250505060405180910390209250838960405180836000191660001916815260200182805190602001908083835b602083101515610fc35780518252602082019150602081019050602083039250610f9e565b6001836020036101000a03801982511681845116808217855250505050505090500192505050604051809103902091506005600088815260200190815260200160002060000160009054906101000a900473ffffffffffffffffffffffffffffffffffffffff16905061103683896134c0565b73ffffffffffffffffffffffffffffffffffffffff168173ffffffffffffffffffffffffffffffffffffffff161415156110fe576040517f08c379a000000000000000000000000000000000000000000000000000000000815260040180806020018281038252602f8152602001807f436f6e6669726d6174696f6e207369676e6174757265206d757374206265207381526020017f69676e6564206279206f776e65722e000000000000000000000000000000000081525060400191505060405180910390fd5b61111986868c8560001916612b4c909392919063ffffffff16565b15156111b3576040517f08c379a00000000000000000000000000000000000000000000000000000000081526004018080602001828103825260248152602001807f5472616e73616374696f6e204d65726b6c652070726f6f6620697320696e766181526020017f6c69642e0000000000000000000000000000000000000000000000000000000081525060400191505060405180910390fd5b6005600088815260200190815260200160002060000160006101000a81549073ffffffffffffffffffffffffffffffffffffffff02191690553373ffffffffffffffffffffffffffffffffffffffff166108fc63499602d29081150290604051600060405180830381858888f19350505050158015611236573d6000803e3d6000fd5b5050505050505050505050505050565b60056020528060005260406000206000915090508060000160009054906101000a900473ffffffffffffffffffffffffffffffffffffffff16908060010160009054906101000a900473ffffffffffffffffffffffffffffffffffffffff16908060020160009054906101000a900473ffffffffffffffffffffffffffffffffffffffff16908060030154905084565b6000809054906101000a900473ffffffffffffffffffffffffffffffffffffffff1673ffffffffffffffffffffffffffffffffffffffff163373ffffffffffffffffffffffffffffffffffffffff1614151561139a576040517f08c379a00000000000000000000000000000000000000000000000000000000081526004018080602001828103825260188152602001807f53656e646572206d757374206265206f70657261746f722e000000000000000081525060200191505060405180910390fd5b63499602d28034141515611416576040517f08c379a00000000000000000000000000000000000000000000000000000000081526004018080602001828103825260178152602001807f496e76616c69642061747461636865642076616c75652e00000000000000000081525060200191505060405180910390fd5b61142860035433858560014201612d79565b61143e600160035461368190919063ffffffff16565b600381905550505050565b6000809054906101000a900473ffffffffffffffffffffffffffffffffffffffff1681565b600073ffffffffffffffffffffffffffffffffffffffff16600760009054906101000a900473ffffffffffffffffffffffffffffffffffffffff1673ffffffffffffffffffffffffffffffffffffffff161415156114cb57600080fd5b80600760006101000a81548173ffffffffffffffffffffffffffffffffffffffff021916908373ffffffffffffffffffffffffffffffffffffffff16021790555050565b60015481565b6000806004600084815260200190815260200160002060000154600460008581526020019081526020016000206001015491509150915091565b600080600660008473ffffffffffffffffffffffffffffffffffffffff1673ffffffffffffffffffffffffffffffffffffffff16815260200190815260200160002060009054906101000a900473ffffffffffffffffffffffffffffffffffffffff1673ffffffffffffffffffffffffffffffffffffffff1663d6362e976040518163ffffffff167c01000000000000000000000000000000000000000000000000000000000281526004016040805180830381600087803b15801561161457600080fd5b505af1158015611628573d6000803e3d6000fd5b505050506040513d604081101561163e57600080fd5b81019080805190602001909291908051906020019092919050505091509150915091565b6103e881565b6000806000611675613dfd565b6000806000806000808b73ffffffffffffffffffffffffffffffffffffffff16600073ffffffffffffffffffffffffffffffffffffffff16141515611722576040517f08c379a00000000000000000000000000000000000000000000000000000000081526004018080602001828103825260128152602001807f546f6b656e206d757374206265204554482e000000000000000000000000000081525060200191505060405180910390fd5b61172b8c61154f565b809b50819a505050600660008d73ffffffffffffffffffffffffffffffffffffffff1673ffffffffffffffffffffffffffffffffffffffff16815260200190815260200160002060009054906101000a900473ffffffffffffffffffffffffffffffffffffffff169750600560008b8152602001908152602001600020608060405190810160405290816000820160009054906101000a900473ffffffffffffffffffffffffffffffffffffffff1673ffffffffffffffffffffffffffffffffffffffff1673ffffffffffffffffffffffffffffffffffffffff1681526020016001820160009054906101000a900473ffffffffffffffffffffffffffffffffffffffff1673ffffffffffffffffffffffffffffffffffffffff1673ffffffffffffffffffffffffffffffffffffffff1681526020016002820160009054906101000a900473ffffffffffffffffffffffffffffffffffffffff1673ffffffffffffffffffffffffffffffffffffffff1673ffffffffffffffffffffffffffffffffffffffff16815260200160038201548152505096505b42891080156118d157508a86105b15611e10578580600101965050600560008b8152602001908152602001600020608060405190810160405290816000820160009054906101000a900473ffffffffffffffffffffffffffffffffffffffff1673ffffffffffffffffffffffffffffffffffffffff1673ffffffffffffffffffffffffffffffffffffffff1681526020016001820160009054906101000a900473ffffffffffffffffffffffffffffffffffffffff1673ffffffffffffffffffffffffffffffffffffffff1673ffffffffffffffffffffffffffffffffffffffff1681526020016002820160009054906101000a900473ffffffffffffffffffffffffffffffffffffffff1673ffffffffffffffffffffffffffffffffffffffff1673ffffffffffffffffffffffffffffffffffffffff1681526020016003820154815250509650866040015194508473ffffffffffffffffffffffffffffffffffffffff16639d80c8186040518163ffffffff167c0100000000000000000000000000000000000000000000000000000000028152600401602060405180830381600087803b158015611a7657600080fd5b505af1158015611a8a573d6000803e3d6000fd5b505050506040513d6020811015611aa057600080fd5b81019080805190602001909291905050509350600090505b83811015611bcf578473ffffffffffffffffffffffffffffffffffffffff1663aca4dc31826040518263ffffffff167c0100000000000000000000000000000000000000000000000000000000028152600401808281526020019150506040805180830381600087803b158015611b2e57600080fd5b505af1158015611b42573d6000803e3d6000fd5b505050506040513d6040811015611b5857600080fd5b81019080805190602001909291908051906020019092919050505080935081945050508173ffffffffffffffffffffffffffffffffffffffff166108fc849081150290604051600060405180830381858888f19350505050158015611bc1573d6000803e3d6000fd5b508080600101915050611ab8565b611bdc876040015161369f565b600073ffffffffffffffffffffffffffffffffffffffff16876000015173ffffffffffffffffffffffffffffffffffffffff16141515611c6657866000015173ffffffffffffffffffffffffffffffffffffffff166108fc63499602d29081150290604051600060405180830381858888f19350505050158015611c64573d6000803e3d6000fd5b505b8773ffffffffffffffffffffffffffffffffffffffff1663b07576ac6040518163ffffffff167c01000000000000000000000000000000000000000000000000000000000281526004016040805180830381600087803b158015611cc957600080fd5b505af1158015611cdd573d6000803e3d6000fd5b505050506040513d6040811015611cf357600080fd5b8101908080519060200190929190805190602001909291905050505050600560008b815260200190815260200160002060000160006101000a81549073ffffffffffffffffffffffffffffffffffffffff021916905560008873ffffffffffffffffffffffffffffffffffffffff1663bda1504b6040518163ffffffff167c0100000000000000000000000000000000000000000000000000000000028152600401602060405180830381600087803b158015611daf57600080fd5b505af1158015611dc3573d6000803e3d6000fd5b505050506040513d6020811015611dd957600080fd5b81019080805190602001909291905050501115611e0657611df98c61154f565b809b50819a505050611e0b565b611e11565b6118c3565b5b505050505050505050505050565b60025481565b60046020528060005260406000206000915090508060000154908060010154905082565b6000809054906101000a900473ffffffffffffffffffffffffffffffffffffffff1673ffffffffffffffffffffffffffffffffffffffff163373ffffffffffffffffffffffffffffffffffffffff16141515611f0d576040517f08c379a00000000000000000000000000000000000000000000000000000000081526004018080602001828103825260188152602001807f53656e646572206d757374206265206f70657261746f722e000000000000000081525060200191505060405180910390fd5b604080519081016040528082600019168152602001428152506004600060015481526020019081526020016000206000820151816000019060001916905560208201518160010155905050611f6f6103e860015461368190919063ffffffff16565b60018190555060016002819055507f3be20e672590051e92360aa9dd9247e52541ad35d7a0297ff9e0f94e993295e981426040518083600019166000191681526020018281526020019250505060405180910390a150565b6000611ff4600254611fe66103e86001546137f590919063ffffffff16565b61368190919063ffffffff16565b905090565b60035481565b6000806103e860025410151561207d576040517f08c379a00000000000000000000000000000000000000000000000000000000081526004018080602001828103825260168152602001807f4465706f736974206c696d697420726561636865642e0000000000000000000081525060200191505060405180910390fd5b33600034604051602001808473ffffffffffffffffffffffffffffffffffffffff1673ffffffffffffffffffffffffffffffffffffffff166c010000000000000000000000000281526014018373ffffffffffffffffffffffffffffffffffffffff1673ffffffffffffffffffffffffffffffffffffffff166c0100000000000000000000000002815260140182815260200193505050506040516020818303038152906040526040518082805190602001908083835b6020831015156121595780518252602082019150602081019050602083039250612134565b6001836020036101000a03801982511681845116808217855250505050505090500191505060405180910390209150612190611fc7565b9050604080519081016040528083600019168152602001428152506004600083815260200190815260200160002060008201518160000190600019169055602082015181600101559050506121f1600160025461368190919063ffffffff16565b600281905550803373ffffffffffffffffffffffffffffffffffffffff167fd2f8022f659fd9c8c558f30c00fd5ee7038f7cb56da45095c3e0e7d48b3e0c4b600034604051808373ffffffffffffffffffffffffffffffffffffffff1673ffffffffffffffffffffffffffffffffffffffff1681526020018281526020019250505060405180910390a35050565b60066020528060005260406000206000915054906101000a900473ffffffffffffffffffffffffffffffffffffffff1681565b63499602d281565b60008060006005600085815260200190815260200160002060000160009054906101000a900473ffffffffffffffffffffffffffffffffffffffff166005600086815260200190815260200160002060010160009054906101000a900473ffffffffffffffffffffffffffffffffffffffff1660056000878152602001908152602001600020600301549250925092509193909250565b60096020528060005260406000206000915090505481565b600081565b600073ffffffffffffffffffffffffffffffffffffffff16600660008073ffffffffffffffffffffffffffffffffffffffff1673ffffffffffffffffffffffffffffffffffffffff16815260200190815260200160002060009054906101000a900473ffffffffffffffffffffffffffffffffffffffff1673ffffffffffffffffffffffffffffffffffffffff1614151561240857600080fd5b80600660008073ffffffffffffffffffffffffffffffffffffffff1673ffffffffffffffffffffffffffffffffffffffff16815260200190815260200160002060006101000a81548173ffffffffffffffffffffffffffffffffffffffff021916908373ffffffffffffffffffffffffffffffffffffffff16021790555050565b600080600063499602d2803414151561250a576040517f08c379a00000000000000000000000000000000000000000000000000000000081526004018080602001828103825260178152602001807f496e76616c69642061747461636865642076616c75652e00000000000000000081525060200191505060405180910390fd5b633b9aca008781151561251957fe5b04935060006103e88581151561252b57fe5b06141515156125c8576040517f08c379a00000000000000000000000000000000000000000000000000000000081526004018080602001828103825260298152602001807f5265666572656e63656420626c6f636b206d7573742062652061206465706f7381526020017f697420626c6f636b2e000000000000000000000000000000000000000000000081525060400191505060405180910390fd5b60046000858152602001908152602001600020600001549250338686604051808473ffffffffffffffffffffffffffffffffffffffff1673ffffffffffffffffffffffffffffffffffffffff166c010000000000000000000000000281526014018373ffffffffffffffffffffffffffffffffffffffff1673ffffffffffffffffffffffffffffffffffffffff166c0100000000000000000000000002815260140182815260200193505050506040518091039020915081600019168360001916141515612724576040517f08c379a00000000000000000000000000000000000000000000000000000000081526004018080602001828103825260228152602001807f526f6f742068617368206d757374206d61746368206465706f7369742068617381526020017f682e00000000000000000000000000000000000000000000000000000000000081525060400191505060405180910390fd5b61274787338888600460008a815260200190815260200160002060010154612d79565b50505050505050565b612758613da8565b606061276b6127668561380e565b613864565b905060806040519081016040528061279f838660020260070181518110151561279057fe5b906020019060200201516139a9565b73ffffffffffffffffffffffffffffffffffffffff1681526020016127db8360068151811015156127cc57fe5b906020019060200201516139a9565b73ffffffffffffffffffffffffffffffffffffffff16815260200161281c838660020260080181518110151561280d57fe5b90602001906020020151613a49565b815260200161284283600381518110151561283357fe5b90602001906020020151613a49565b61286384600081518110151561285457fe5b90602001906020020151613a49565b0281525091505092915050565b606080828401855110151515612914576040517f08c379a00000000000000000000000000000000000000000000000000000000081526004018080602001828103825260308152602001807f536c696365206c656e6774682063616e6e6f74206265206c6f6e67657220746881526020017f616e205f6279746573206c656e6774680000000000000000000000000000000081525060400191505060405180910390fd5b82156000811461292f57604051915060208201604052612980565b6040519150601f8416801560200281840101858101878315602002848b0101015b8183101561296d5780518352602083019250602081019050612950565b50868552601f19601f8301166040525050505b50809150509392505050565b6000606080606060008060006060600060418a518115156129a957fe5b061480156129ba5750610104895111155b1515612a2e576040517f08c379a00000000000000000000000000000000000000000000000000000000081526004018080602001828103825260198152602001807f496e76616c6964207369676e6174757265206c656e6774682e0000000000000081525060200191505060405180910390fd5b612a3b8960006041612870565b9650612a4989604180612870565b9550612a588960826041612870565b94508b8b604051808360001916600019168152602001826000191660001916815260200192505050604051809103902093506001925060019150612a9c84866134c0565b73ffffffffffffffffffffffffffffffffffffffff16612abc8d896134c0565b73ffffffffffffffffffffffffffffffffffffffff1614925060008a1115612b3157612aeb8960c36041612870565b9050612af784826134c0565b73ffffffffffffffffffffffffffffffffffffffff16612b178d886134c0565b73ffffffffffffffffffffffffffffffffffffffff161491505b828015612b3b5750815b975050505050505050949350505050565b60008060008060008060208751811515612b6257fe5b06141515612bd8576040517f08c379a00000000000000000000000000000000000000000000000000000000081526004018080602001828103825260158152602001807f496e76616c69642070726f6f66206c656e6774682e000000000000000000000081525060200191505060405180910390fd5b889250879150602090505b855181111515612d60578086015193506000600289811515612c0157fe5b061415612ca95782846040516020018083600019166000191681526020018260001916600019168152602001925050506040516020818303038152906040526040518082805190602001908083835b602083101515612c755780518252602082019150602081019050602083039250612c50565b6001836020036101000a03801982511681845116808217855250505050505090500191505060405180910390209250612d46565b83836040516020018083600019166000191681526020018260001916600019168152602001925050506040516020818303038152906040526040518082805190602001908083835b602083101515612d165780518252602082019150602081019050602083039250612cf1565b6001836020036101000a038019825116818451168082178552505050505050905001915050604051809103902092505b600282811515612d5257fe5b049150602081019050612be3565b8660001916836000191614945050505050949350505050565b600080600080600073ffffffffffffffffffffffffffffffffffffffff16600660008973ffffffffffffffffffffffffffffffffffffffff1673ffffffffffffffffffffffffffffffffffffffff16815260200190815260200160002060009054906101000a900473ffffffffffffffffffffffffffffffffffffffff1673ffffffffffffffffffffffffffffffffffffffff1614151515612e83576040517f08c379a00000000000000000000000000000000000000000000000000000000081526004018080602001828103825260188152602001807f4d75737420657869742061206b6e6f776e20746f6b656e2e000000000000000081525060200191505060405180910390fd5b600086111515612efb576040517f08c379a000000000000000000000000000000000000000000000000000000000815260040180806020018281038252601a8152602001807f457869742076616c75652063616e6e6f74206265207a65726f2e00000000000081525060200191505060405180910390fd5b6000600560008b815260200190815260200160002060030154141515612f89576040517f08c379a000000000000000000000000000000000000000000000000000000000815260040180806020018281038252601a8152602001807f457869742063616e6e6f7420616c72656164792065786973742e00000000000081525060200191505060405180910390fd5b612f9d62127500860162093a804201613a8b565b9350600660008873ffffffffffffffffffffffffffffffffffffffff1673ffffffffffffffffffffffffffffffffffffffff16815260200190815260200160002060009054906101000a900473ffffffffffffffffffffffffffffffffffffffff1692508273ffffffffffffffffffffffffffffffffffffffff16631d834a1b858b6040518363ffffffff167c01000000000000000000000000000000000000000000000000000000000281526004018083815260200182815260200192505050600060405180830381600087803b15801561307857600080fd5b505af115801561308c573d6000803e3d6000fd5b50505050613098613aa5565b91508190508073ffffffffffffffffffffffffffffffffffffffff1663b792e6ec87336040518363ffffffff167c0100000000000000000000000000000000000000000000000000000000028152600401808381526020018273ffffffffffffffffffffffffffffffffffffffff1673ffffffffffffffffffffffffffffffffffffffff16815260200192505050600060405180830381600087803b15801561314057600080fd5b505af1158015613154573d6000803e3d6000fd5b505050506080604051908101604052808973ffffffffffffffffffffffffffffffffffffffff1681526020018873ffffffffffffffffffffffffffffffffffffffff1681526020018373ffffffffffffffffffffffffffffffffffffffff16815260200187815250600560008b815260200190815260200160002060008201518160000160006101000a81548173ffffffffffffffffffffffffffffffffffffffff021916908373ffffffffffffffffffffffffffffffffffffffff16021790555060208201518160010160006101000a81548173ffffffffffffffffffffffffffffffffffffffff021916908373ffffffffffffffffffffffffffffffffffffffff16021790555060408201518160020160006101000a81548173ffffffffffffffffffffffffffffffffffffffff021916908373ffffffffffffffffffffffffffffffffffffffff16021790555060608201518160030155905050600880549050600960008473ffffffffffffffffffffffffffffffffffffffff1673ffffffffffffffffffffffffffffffffffffffff1681526020019081526020016000208190555060088290806001815401808255809150509060018203906000526020600020016000909192909190916101000a81548173ffffffffffffffffffffffffffffffffffffffff021916908373ffffffffffffffffffffffffffffffffffffffff16021790555050883373ffffffffffffffffffffffffffffffffffffffff167f09cf025778658647f8893deca224ba7758797c2a6a28f7ce9d2a75c5b6fe9190848a8a604051808473ffffffffffffffffffffffffffffffffffffffff1673ffffffffffffffffffffffffffffffffffffffff1681526020018373ffffffffffffffffffffffffffffffffffffffff1673ffffffffffffffffffffffffffffffffffffffff168152602001828152602001935050505060405180910390a3505050505050505050565b6000606060006134396134348661380e565b613864565b9150600384029050613464828260020181518110151561345557fe5b90602001906020020151613a49565b61271061348a848460010181518110151561347b57fe5b90602001906020020151613a49565b02633b9aca006134b385856000018151811015156134a457fe5b90602001906020020151613a49565b0201019250505092915050565b6000806000806041855114151561353f576040517f08c379a00000000000000000000000000000000000000000000000000000000081526004018080602001828103825260198152602001807f496e76616c6964207369676e6174757265206c656e6774682e0000000000000081525060200191505060405180910390fd5b6020850151925060408501519150606085015160001a9050601b8160ff16101561356a57601b810190505b601b8160ff16141580156135825750601c8160ff1614155b156135f5576040517f08c379a000000000000000000000000000000000000000000000000000000000815260040180806020018281038252601a8152602001807f496e76616c6964207369676e61747572652076657273696f6e2e00000000000081525060200191505060405180910390fd5b600186828585604051600081526020016040526040518085600019166000191681526020018460ff1660ff1681526020018360001916600019168152602001826000191660001916815260200194505050505060206040516020810390808403906000865af115801561366c573d6000803e3d6000fd5b50505060206040510351935050505092915050565b600080828401905083811015151561369557fe5b8091505092915050565b6000806000600960008573ffffffffffffffffffffffffffffffffffffffff1673ffffffffffffffffffffffffffffffffffffffff1681526020019081526020016000205492506136ff60016008805490506137f590919063ffffffff16565b915060088281548110151561371057fe5b9060005260206000200160009054906101000a900473ffffffffffffffffffffffffffffffffffffffff1690508060088481548110151561374d57fe5b9060005260206000200160006101000a81548173ffffffffffffffffffffffffffffffffffffffff021916908373ffffffffffffffffffffffffffffffffffffffff16021790555082600960008373ffffffffffffffffffffffffffffffffffffffff1673ffffffffffffffffffffffffffffffffffffffff1681526020019081526020016000208190555060088054809190600190036137ee9190613e68565b5050505050565b600082821115151561380357fe5b818303905092915050565b613816613e94565b6000808351141561383f576040805190810160405280600081526020016000815250915061385e565b6020830190506040805190810160405280845181526020018281525091505b50919050565b606060008060008061387586613be1565b15156138e9576040517f08c379a00000000000000000000000000000000000000000000000000000000081526004018080602001828103825260148152602001807f4974656d206d7573742062652061206c6973742e00000000000000000000000081525060200191505060405180910390fd5b6138f286613c18565b93508360405190808252806020026020018201604052801561392e57816020015b61391b613eae565b8152602001906001900390816139135790505b50945061393e8660200151613c72565b8660200151019250600090505b838110156139a05761395c83613cf8565b9150604080519081016040528083815260200184815250858281518110151561398157fe5b906020019060200201819052508183019250808060010191505061394b565b50505050919050565b600080600060158460000151141515613a2a576040517f08c379a00000000000000000000000000000000000000000000000000000000081526004018080602001828103825260208152602001807f4974656d206d7573742062652032312063686172616374657273206c6f6e672e81525060200191505060405180910390fd5b60018460200151019150600c6101000a82510490508092505050919050565b6000806000806000613a5e8660200151613c72565b9350838660000151039250838660200151019150826020036101000a825104905080945050505050919050565b600081831015613a9b5781613a9d565b825b905092915050565b60006060600080606060405190810160405280603f81526020017f600034603b57603080600f833981f36000368180378080368173bebebebebebe81526020017fbebebebebebebebebebebebebebe5af43d82803e15602c573d90f35b3d90fd008152509250600760009054906101000a900473ffffffffffffffffffffffffffffffffffffffff166c01000000000000000000000000029150600090505b6014811015613bcc578181601481101515613b5b57fe5b1a7f0100000000000000000000000000000000000000000000000000000000000000028382601a01815181101515613b8f57fe5b9060200101907effffffffffffffffffffffffffffffffffffffffffffffffffffffffffffff1916908160001a9053508080600101915050613b44565b82516020840181816000f09550505050505090565b600080600083602001519050805160001a915060c060ff168260ff161015613c0c5760009250613c11565b600192505b5050919050565b60008060008060009250613c2f8560200151613c72565b8560200151019150846000015185602001510190505b80821015613c6757613c5682613cf8565b820191508280600101935050613c45565b829350505050919050565b600080825160001a9050608060ff16811015613c915760009150613cf2565b60b860ff16811080613cb6575060c060ff168110158015613cb5575060f860ff1681105b5b15613cc45760019150613cf2565b60c060ff16811015613ce35760018060b80360ff168203019150613cf2565b60018060f80360ff1682030191505b50919050565b600080825160001a9050608060ff16811015613d175760019150613da2565b60b860ff16811015613d34576001608060ff168203019150613da2565b60c060ff16811015613d645760b78103600184019350806020036101000a84510460018201810193505050613da1565b60f860ff16811015613d8157600160c060ff168203019150613da2565b60f78103600184019350806020036101000a845104600182018101935050505b5b50919050565b608060405190810160405280600073ffffffffffffffffffffffffffffffffffffffff168152602001600073ffffffffffffffffffffffffffffffffffffffff16815260200160008152602001600081525090565b608060405190810160405280600073ffffffffffffffffffffffffffffffffffffffff168152602001600073ffffffffffffffffffffffffffffffffffffffff168152602001600073ffffffffffffffffffffffffffffffffffffffff168152602001600081525090565b815481835581811115613e8f57818360005260206000209182019101613e8e9190613ec8565b5b505050565b604080519081016040528060008152602001600081525090565b604080519081016040528060008152602001600081525090565b613eea91905b80821115613ee6576000816000905550600101613ece565b5090565b905600a165627a7a723058207ea179638f2ab460837049a9e94c561fb2dc94238bb4580d2020fc91182b92b00029",
  "source": "pragma solidity ^0.4.0;\r\n\r\nimport \"./SafeMath.sol\";\r\nimport \"./Math.sol\";\r\nimport \"./PlasmaRLP.sol\";\r\nimport \"./Merkle.sol\";\r\nimport \"./Validate.sol\";\r\nimport \"./PriorityQueue.sol\";\r\nimport \"./PlasmaToken.sol\";\r\n\r\n\r\n/**\r\n * @title RootChain\r\n * @dev This contract secures a utxo payments plasma child chain to ethereum.\r\n */\r\ncontract RootChain {\r\n    using SafeMath for uint256;\r\n    using Merkle for bytes32;\r\n    using PlasmaRLP for bytes;\r\n\r\n\r\n    /*\r\n     * Events\r\n     */\r\n\r\n    event Deposit(\r\n        address indexed depositor,\r\n        uint256 indexed depositBlock,\r\n        address token,\r\n        uint256 amount\r\n    );\r\n\r\n    event ExitStarted(\r\n        address indexed exitor,\r\n        uint256 indexed utxoPos,\r\n        address new_token,\r\n        address token,\r\n        uint256 amount\r\n    );\r\n\r\n    event BlockSubmitted(\r\n        bytes32 root,\r\n        uint256 timestamp\r\n    );\r\n\r\n    event TokenAdded(\r\n        address token\r\n    );\r\n\r\n\r\n    /*\r\n     * Storage\r\n     */\r\n    uint256 public constant EXIT_BOND = 1234567890;\r\n    uint256 public constant CHILD_BLOCK_INTERVAL = 1000;\r\n    address public constant ETHEREUM = address(0);\r\n\r\n    address public operator;\r\n\r\n    uint256 public currentChildBlock;\r\n    uint256 public currentDepositBlock;\r\n    uint256 public currentFeeExit;\r\n\r\n    mapping (uint256 => PlasmaBlock) public plasmaBlocks;\r\n    mapping (uint256 => Exit) public exits;\r\n    mapping (address => address) public exitsQueues;\r\n    address target;\r\n\r\n    address[] openWithdrawals;\r\n    mapping(address => uint) public openWithdrawalIndex;\r\n\r\n    struct Exit {\r\n        address owner;\r\n        address token;\r\n        address plasmaToken;\r\n        uint256 amount;\r\n    }\r\n\r\n    struct PlasmaBlock {\r\n        bytes32 root;\r\n        uint256 timestamp;\r\n    }\r\n\r\n\r\n    /*\r\n     * Modifiers\r\n     */\r\n\r\n    modifier onlyOperator() {\r\n        require(msg.sender == operator, \"Sender must be operator.\");\r\n        _;\r\n    }\r\n\r\n    modifier onlyWithValue(uint256 _value) {\r\n        require(msg.value == _value, \"Invalid attached value.\");\r\n        _;\r\n    }\r\n\r\n\r\n    /*\r\n     * Constructor\r\n     */\r\n\r\n    constructor() public {\r\n        operator = msg.sender;\r\n        currentChildBlock = CHILD_BLOCK_INTERVAL;\r\n        currentDepositBlock = 1;\r\n        currentFeeExit = 1;\r\n        // Support only ETH on deployment; other tokens need\r\n        // to be added explicitly.\r\n        \r\n    }\r\n\r\n    function setTarget(address _target) public {\r\n        require(target == address(0));\r\n        target = _target;\r\n    }\r\n\r\n    function setPriority(address _priority) public{\r\n        require(exitsQueues[ETHEREUM]  == address(0));\r\n        exitsQueues[ETHEREUM] = _priority;\r\n    }\r\n\r\n\r\n    /*\r\n     * Public Functions\r\n     */\r\n\r\n    /**\r\n     * @dev Allows Plasma chain operator to submit block root.\r\n     * @param _root The root of a child chain block.\r\n     */\r\n    function submitBlock(bytes32 _root) public onlyOperator {\r\n        plasmaBlocks[currentChildBlock] = PlasmaBlock({\r\n            root: _root,\r\n            timestamp: block.timestamp\r\n        });\r\n\r\n        // Update block numbers.\r\n        currentChildBlock = currentChildBlock.add(CHILD_BLOCK_INTERVAL);\r\n        currentDepositBlock = 1;\r\n\r\n        emit BlockSubmitted(_root, block.timestamp);\r\n    }\r\n\r\n    /**\r\n     * @dev Allows anyone to deposit funds into the Plasma chain.\r\n     */\r\n    function deposit() public payable {\r\n        // Only allow up to CHILD_BLOCK_INTERVAL deposits per child block.\r\n        require(currentDepositBlock < CHILD_BLOCK_INTERVAL, \"Deposit limit reached.\");\r\n\r\n        bytes32 root = keccak256(abi.encodePacked(msg.sender, address(0), msg.value));\r\n        uint256 depositBlock = getDepositBlock();\r\n        plasmaBlocks[depositBlock] = PlasmaBlock({\r\n            root: root,\r\n            timestamp: block.timestamp\r\n        });\r\n        currentDepositBlock = currentDepositBlock.add(1);\r\n\r\n        emit Deposit(msg.sender, depositBlock, ETHEREUM, msg.value);\r\n    }\r\n\r\n    /**\r\n     * @dev Starts an exit from a deposit.\r\n     * @param _depositPos UTXO position of the deposit.\r\n     * @param _token Token type to deposit.\r\n     * @param _amount Deposit amount.\r\n     */\r\n    function startDepositExit(\r\n        uint256 _depositPos,\r\n        address _token,\r\n        uint256 _amount\r\n    )\r\n        public payable onlyWithValue(EXIT_BOND)\r\n    {\r\n        uint256 blknum = _depositPos / 1000000000;\r\n\r\n        // Check that the given UTXO is a deposit.\r\n        require(blknum % CHILD_BLOCK_INTERVAL != 0, \"Referenced block must be a deposit block.\");\r\n\r\n        // Validate the given owner and amount.\r\n        bytes32 root = plasmaBlocks[blknum].root;\r\n        bytes32 depositHash = keccak256(msg.sender, _token, _amount);\r\n        require(root == depositHash, \"Root hash must match deposit hash.\");\r\n\r\n        addExitToQueue(_depositPos, msg.sender, _token, _amount, plasmaBlocks[blknum].timestamp);\r\n    }\r\n\r\n    /**\r\n     * @dev Allows the operator withdraw any allotted fees. Starts an exit to avoid theft.\r\n     * @param _token Token to withdraw.\r\n     * @param _amount Amount in fees to withdraw.\r\n     */\r\n    function startFeeExit(address _token, uint256 _amount) public payable onlyOperator onlyWithValue(EXIT_BOND) {\r\n        addExitToQueue(currentFeeExit, msg.sender, _token, _amount, block.timestamp + 1);\r\n        currentFeeExit = currentFeeExit.add(1);\r\n    }\r\n\r\n    /**\r\n     * @dev Starts to exit a specified utxo.\r\n     * @param _utxoPos The position of the exiting utxo in the format of blknum * 1000000000 + index * 10000 + oindex.\r\n     * @param _txBytes The transaction being exited in RLP bytes format.\r\n     * @param _proof Proof of the exiting transactions inclusion for the block specified by utxoPos.\r\n     * @param _sigs Both transaction signatures and confirmations signatures used to verify that the exiting transaction has been confirmed.\r\n     */\r\n    function startExit(\r\n        uint256 _utxoPos,\r\n        bytes _txBytes,\r\n        bytes _proof,\r\n        bytes _sigs\r\n    )\r\n        public payable onlyWithValue(EXIT_BOND)\r\n    {\r\n        uint256 blknum = _utxoPos / 1000000000;\r\n        uint256 txindex = (_utxoPos % 1000000000) / 10000;\r\n        uint256 oindex = _utxoPos - blknum * 1000000000 - txindex * 10000;\r\n\r\n        // Check the sender owns this UTXO.\r\n        var exitingTx = _txBytes.createExitingTx(oindex);\r\n        require(msg.sender == exitingTx.exitor, \"Sender must be exitor.\");\r\n\r\n        // Check the transaction was included in the chain and is correctly signed.\r\n        bytes32 root = plasmaBlocks[blknum].root;\r\n        bytes32 merkleHash = keccak256(keccak256(_txBytes), ByteUtils.slice(_sigs, 0, 130));\r\n        require(Validate.checkSigs(keccak256(_txBytes), root, exitingTx.inputCount, _sigs), \"Signatures must match.\");\r\n        require(merkleHash.checkMembership(txindex, root, _proof), \"Transaction Merkle proof is invalid.\");\r\n\r\n        addExitToQueue(_utxoPos, exitingTx.exitor, exitingTx.token, exitingTx.amount, plasmaBlocks[blknum].timestamp);\r\n    }\r\n\r\n    /**\r\n     * @dev Allows anyone to challenge an exiting transaction by submitting proof of a double spend on the child chain.\r\n     * @param _cUtxoPos The position of the challenging utxo.\r\n     * @param _eUtxoIndex The output position of the exiting utxo.\r\n     * @param _txBytes The challenging transaction in bytes RLP form.\r\n     * @param _proof Proof of inclusion for the transaction used to challenge.\r\n     * @param _sigs Signatures for the transaction used to challenge.\r\n     * @param _confirmationSig The confirmation signature for the transaction used to challenge.\r\n     */\r\n    function challengeExit(\r\n        uint256 _cUtxoPos,\r\n        uint256 _eUtxoIndex,\r\n        bytes _txBytes,\r\n        bytes _proof,\r\n        bytes _sigs,\r\n        bytes _confirmationSig\r\n    )\r\n        public\r\n    {\r\n        uint256 eUtxoPos = _txBytes.getUtxoPos(_eUtxoIndex);\r\n        uint256 txindex = (_cUtxoPos % 1000000000) / 10000;\r\n        bytes32 root = plasmaBlocks[_cUtxoPos / 1000000000].root;\r\n        bytes32 txHash = keccak256(_txBytes);\r\n        bytes32 confirmationHash = keccak256(txHash, root);\r\n        bytes32 merkleHash = keccak256(txHash, _sigs);\r\n        address owner = exits[eUtxoPos].owner;\r\n\r\n        // Validate the spending transaction.\r\n        require(owner == ECRecovery.recover(confirmationHash, _confirmationSig), \"Confirmation signature must be signed by owner.\");\r\n        require(merkleHash.checkMembership(txindex, root, _proof), \"Transaction Merkle proof is invalid.\");\r\n\r\n        // Delete the owner but keep the amount to prevent another exit.\r\n        delete exits[eUtxoPos].owner;\r\n        msg.sender.transfer(EXIT_BOND);\r\n    }\r\n\r\n    /**\r\n     * @dev Determines the next exit to be processed.\r\n     * @param _token Asset type to be exited.\r\n     * @return A tuple of the position and time when this exit can be processed.\r\n     */\r\n    function getNextExit(address _token) public view returns (uint256, uint256) {\r\n        return PriorityQueue(exitsQueues[_token]).getMin();\r\n    }\r\n\r\n\r\n    function finalizeExits(address _token, uint256 _withdrawalMax) public {\r\n        uint256 utxoPos;\r\n        uint256 exitableAt;\r\n        require(ETHEREUM == _token, \"Token must be ETH.\");\r\n        (exitableAt, utxoPos) = getNextExit(_token);\r\n        PriorityQueue queue = PriorityQueue(exitsQueues[_token]);\r\n        Exit memory currentExit = exits[utxoPos];\r\n        uint256 paid;\r\n        while (exitableAt < block.timestamp && paid < _withdrawalMax) {\r\n            paid++;\r\n            currentExit = exits[utxoPos];\r\n            PlasmaToken token = PlasmaToken(currentExit.plasmaToken);\r\n            uint256 add_count = token.addressCount(); //We need to make it so this can't get too big\r\n            uint256 balance;\r\n            address holder;\r\n            for(uint256 i=0;i<add_count;i++){\r\n                (balance, holder) = token.getBalanceandHolderbyIndex(i);\r\n                holder.transfer(balance);\r\n            }\r\n            popWithdrawal(currentExit.plasmaToken);\r\n            if (currentExit.owner != address(0)) {\r\n                currentExit.owner.transfer(EXIT_BOND);\r\n            }\r\n            queue.delMin();\r\n            delete exits[utxoPos].owner;\r\n            if (queue.currentSize() > 0) {\r\n                (exitableAt,utxoPos) = getNextExit(_token);\r\n            } else {\r\n                return;\r\n            }\r\n        }\r\n    }\r\n\r\n    function popWithdrawal(address _token) internal {\r\n        uint256 tokenIndex = openWithdrawalIndex[_token];\r\n        uint256 lastTokenIndex = openWithdrawals.length.sub(1);\r\n        address lastToken = openWithdrawals[lastTokenIndex];\r\n        openWithdrawals[tokenIndex] = lastToken;\r\n        openWithdrawalIndex[lastToken] = tokenIndex;\r\n        openWithdrawals.length--;\r\n    }\r\n\r\n\r\n    /*\r\n     * Public view functions\r\n     */\r\n\r\n    /**\r\n     * @dev Queries the child chain.\r\n     * @param _blockNumber Number of the block to return.\r\n     * @return Child chain block at the specified block number.\r\n     */\r\n    function getPlasmaBlock(uint256 _blockNumber) public view returns (bytes32, uint256) {\r\n        return (plasmaBlocks[_blockNumber].root, plasmaBlocks[_blockNumber].timestamp);\r\n    }\r\n\r\n    /**\r\n     * @dev Determines the next deposit block number.\r\n     * @return Block number to be given to the next deposit block.\r\n     */\r\n    function getDepositBlock() public view returns (uint256) {\r\n        return currentChildBlock.sub(CHILD_BLOCK_INTERVAL).add(currentDepositBlock);\r\n    }\r\n\r\n    /**\r\n     * @dev Returns information about an exit.\r\n     * @param _utxoPos Position of the UTXO in the chain.\r\n     * @return A tuple representing the active exit for the given UTXO.\r\n     */\r\n    function getExit(uint256 _utxoPos) public view returns (address, address, uint256) {\r\n        return (exits[_utxoPos].owner, exits[_utxoPos].token, exits[_utxoPos].amount);\r\n    }\r\n\r\n\r\n    /*\r\n     * Private functions\r\n     */\r\n\r\n    /**\r\n     * @dev Adds an exit to the exit queue.\r\n     * @param _utxoPos Position of the UTXO in the child chain.\r\n     * @param _exitor Owner of the UTXO.\r\n     * @param _token Token to be exited.\r\n     * @param _amount Amount to be exited.\r\n     * @param _created_at Time when the UTXO was created.\r\n     */\r\n    function addExitToQueue(\r\n        uint256 _utxoPos,\r\n        address _exitor,\r\n        address _token,\r\n        uint256 _amount,\r\n        uint256 _created_at\r\n    )\r\n        private\r\n    {\r\n        // Check that we're exiting a known token.\r\n        require(exitsQueues[_token] != address(0), \"Must exit a known token.\");\r\n\r\n        // Check exit is valid and doesn't already exist.\r\n        require(_amount > 0, \"Exit value cannot be zero.\");\r\n        require(exits[_utxoPos].amount == 0, \"Exit cannot already exist.\");\r\n\r\n        // Calculate priority.\r\n        uint256 exitableAt = Math.max(_created_at + 2 weeks, block.timestamp + 1 weeks);\r\n        PriorityQueue queue = PriorityQueue(exitsQueues[_token]);\r\n        queue.insert(exitableAt, _utxoPos);\r\n        address new_token = createClone();\r\n        PlasmaToken Token = PlasmaToken(new_token);\r\n        Token.init(_amount, msg.sender);\r\n\r\n        exits[_utxoPos] = Exit({\r\n            owner: _exitor,\r\n            token: _token,\r\n            plasmaToken: new_token,\r\n            amount: _amount\r\n        });\r\n        \r\n        openWithdrawalIndex[new_token] = openWithdrawals.length;\r\n        openWithdrawals.push(new_token);\r\n        emit ExitStarted(msg.sender, _utxoPos, new_token,_token, _amount);\r\n    }\r\n\r\n    /**\r\n    *@dev Creates factory clone\r\n    *@param _target is the address being cloned\r\n    *@return address for clone\r\n    */\r\n    function createClone() internal returns (address result) {\r\n        bytes memory clone = hex\"600034603b57603080600f833981f36000368180378080368173bebebebebebebebebebebebebebebebebebebebe5af43d82803e15602c573d90f35b3d90fd\";\r\n        bytes20 targetBytes = bytes20(target);\r\n        for (uint256 i = 0; i < 20; i++) {\r\n            clone[26 + i] = targetBytes[i];\r\n        }\r\n        assembly {\r\n            let len := mload(clone)\r\n            let data := add(clone, 0x20)\r\n            result := create(0, data, len)\r\n        }\r\n    }\r\n\r\n//    function getUserBalance(address _owner, address _withdrawal) {\r\n//        withdrawal = PlasmaToken(openWithdrawals[_withdrawal]);\r\n//        return withdrawal.balanceOf[_owner];\r\n//    }\r\n}\r\n",
  "sourcePath": "C:\\company\\code\\tpe\\contracts\\RootChain.sol",
  "compiler": {
    "name": "solc",
    "version": "0.4.24+commit.e67f0147.Emscripten.clang"
  },
  "schemaVersion": "2.0.1",
  "updatedAt": "2018-10-07T00:36:51.639Z"
}