{
  "contractName": "RootChain",
  "abi": [
    {
      "constant": true,
      "inputs": [
        {
          "name": "",
          "type": "uint256"
        }
      ],
      "name": "exits",
      "outputs": [
        {
          "name": "owner",
          "type": "address"
        },
        {
          "name": "token",
          "type": "address"
        },
        {
          "name": "plasmaToken",
          "type": "address"
        },
        {
          "name": "amount",
          "type": "uint256"
        }
      ],
      "payable": false,
      "stateMutability": "view",
      "type": "function"
    },
    {
      "constant": true,
      "inputs": [],
      "name": "operator",
      "outputs": [
        {
          "name": "",
          "type": "address"
        }
      ],
      "payable": false,
      "stateMutability": "view",
      "type": "function"
    },
    {
      "constant": true,
      "inputs": [],
      "name": "currentChildBlock",
      "outputs": [
        {
          "name": "",
          "type": "uint256"
        }
      ],
      "payable": false,
      "stateMutability": "view",
      "type": "function"
    },
    {
      "constant": true,
      "inputs": [],
      "name": "CHILD_BLOCK_INTERVAL",
      "outputs": [
        {
          "name": "",
          "type": "uint256"
        }
      ],
      "payable": false,
      "stateMutability": "view",
      "type": "function"
    },
    {
      "constant": true,
      "inputs": [],
      "name": "currentDepositBlock",
      "outputs": [
        {
          "name": "",
          "type": "uint256"
        }
      ],
      "payable": false,
      "stateMutability": "view",
      "type": "function"
    },
    {
      "constant": true,
      "inputs": [
        {
          "name": "",
          "type": "uint256"
        }
      ],
      "name": "plasmaBlocks",
      "outputs": [
        {
          "name": "root",
          "type": "bytes32"
        },
        {
          "name": "timestamp",
          "type": "uint256"
        }
      ],
      "payable": false,
      "stateMutability": "view",
      "type": "function"
    },
    {
      "constant": true,
      "inputs": [],
      "name": "currentFeeExit",
      "outputs": [
        {
          "name": "",
          "type": "uint256"
        }
      ],
      "payable": false,
      "stateMutability": "view",
      "type": "function"
    },
    {
      "constant": true,
      "inputs": [
        {
          "name": "",
          "type": "address"
        }
      ],
      "name": "exitsQueues",
      "outputs": [
        {
          "name": "",
          "type": "address"
        }
      ],
      "payable": false,
      "stateMutability": "view",
      "type": "function"
    },
    {
      "constant": true,
      "inputs": [],
      "name": "EXIT_BOND",
      "outputs": [
        {
          "name": "",
          "type": "uint256"
        }
      ],
      "payable": false,
      "stateMutability": "view",
      "type": "function"
    },
    {
      "constant": true,
      "inputs": [
        {
          "name": "",
          "type": "address"
        }
      ],
      "name": "openWithdrawalIndex",
      "outputs": [
        {
          "name": "",
          "type": "uint256"
        }
      ],
      "payable": false,
      "stateMutability": "view",
      "type": "function"
    },
    {
      "constant": true,
      "inputs": [],
      "name": "ETHEREUM",
      "outputs": [
        {
          "name": "",
          "type": "address"
        }
      ],
      "payable": false,
      "stateMutability": "view",
      "type": "function"
    },
    {
      "inputs": [],
      "payable": false,
      "stateMutability": "nonpayable",
      "type": "constructor"
    },
    {
      "anonymous": false,
      "inputs": [
        {
          "indexed": true,
          "name": "depositor",
          "type": "address"
        },
        {
          "indexed": true,
          "name": "depositBlock",
          "type": "uint256"
        },
        {
          "indexed": false,
          "name": "token",
          "type": "address"
        },
        {
          "indexed": false,
          "name": "amount",
          "type": "uint256"
        }
      ],
      "name": "Deposit",
      "type": "event"
    },
    {
      "anonymous": false,
      "inputs": [
        {
          "indexed": true,
          "name": "exitor",
          "type": "address"
        },
        {
          "indexed": true,
          "name": "utxoPos",
          "type": "uint256"
        },
        {
          "indexed": false,
          "name": "new_token",
          "type": "address"
        },
        {
          "indexed": false,
          "name": "token",
          "type": "address"
        },
        {
          "indexed": false,
          "name": "amount",
          "type": "uint256"
        }
      ],
      "name": "ExitStarted",
      "type": "event"
    },
    {
      "anonymous": false,
      "inputs": [
        {
          "indexed": false,
          "name": "root",
          "type": "bytes32"
        },
        {
          "indexed": false,
          "name": "timestamp",
          "type": "uint256"
        }
      ],
      "name": "BlockSubmitted",
      "type": "event"
    },
    {
      "anonymous": false,
      "inputs": [
        {
          "indexed": false,
          "name": "token",
          "type": "address"
        }
      ],
      "name": "TokenAdded",
      "type": "event"
    },
    {
      "anonymous": false,
      "inputs": [
        {
          "indexed": false,
          "name": "_num",
          "type": "uint256"
        }
      ],
      "name": "Print",
      "type": "event"
    },
    {
      "anonymous": false,
      "inputs": [
        {
          "indexed": false,
          "name": "_seller",
          "type": "address"
        },
        {
          "indexed": false,
          "name": "_paid",
          "type": "uint256"
        }
      ],
      "name": "ExitFinal",
      "type": "event"
    },
    {
      "constant": false,
      "inputs": [
        {
          "name": "_target",
          "type": "address"
        }
      ],
      "name": "setTarget",
      "outputs": [],
      "payable": false,
      "stateMutability": "nonpayable",
      "type": "function"
    },
    {
      "constant": false,
      "inputs": [
        {
          "name": "_priority",
          "type": "address"
        }
      ],
      "name": "setPriority",
      "outputs": [],
      "payable": false,
      "stateMutability": "nonpayable",
      "type": "function"
    },
    {
      "constant": false,
      "inputs": [
        {
          "name": "_root",
          "type": "bytes32"
        }
      ],
      "name": "submitBlock",
      "outputs": [],
      "payable": false,
      "stateMutability": "nonpayable",
      "type": "function"
    },
    {
      "constant": false,
      "inputs": [],
      "name": "deposit",
      "outputs": [],
      "payable": true,
      "stateMutability": "payable",
      "type": "function"
    },
    {
      "constant": false,
      "inputs": [
        {
          "name": "_depositPos",
          "type": "uint256"
        },
        {
          "name": "_token",
          "type": "address"
        },
        {
          "name": "_amount",
          "type": "uint256"
        }
      ],
      "name": "startDepositExit",
      "outputs": [],
      "payable": true,
      "stateMutability": "payable",
      "type": "function"
    },
    {
      "constant": false,
      "inputs": [
        {
          "name": "_token",
          "type": "address"
        },
        {
          "name": "_amount",
          "type": "uint256"
        }
      ],
      "name": "startFeeExit",
      "outputs": [],
      "payable": true,
      "stateMutability": "payable",
      "type": "function"
    },
    {
      "constant": false,
      "inputs": [
        {
          "name": "_utxoPos",
          "type": "uint256"
        },
        {
          "name": "_txBytes",
          "type": "bytes"
        },
        {
          "name": "_proof",
          "type": "bytes"
        },
        {
          "name": "_sigs",
          "type": "bytes"
        }
      ],
      "name": "startExit",
      "outputs": [],
      "payable": true,
      "stateMutability": "payable",
      "type": "function"
    },
    {
      "constant": false,
      "inputs": [
        {
          "name": "_cUtxoPos",
          "type": "uint256"
        },
        {
          "name": "_eUtxoIndex",
          "type": "uint256"
        },
        {
          "name": "_txBytes",
          "type": "bytes"
        },
        {
          "name": "_proof",
          "type": "bytes"
        },
        {
          "name": "_sigs",
          "type": "bytes"
        },
        {
          "name": "_confirmationSig",
          "type": "bytes"
        }
      ],
      "name": "challengeExit",
      "outputs": [],
      "payable": false,
      "stateMutability": "nonpayable",
      "type": "function"
    },
    {
      "constant": true,
      "inputs": [
        {
          "name": "_token",
          "type": "address"
        }
      ],
      "name": "getNextExit",
      "outputs": [
        {
          "name": "",
          "type": "uint256"
        },
        {
          "name": "",
          "type": "uint256"
        }
      ],
      "payable": false,
      "stateMutability": "view",
      "type": "function"
    },
    {
      "constant": false,
      "inputs": [
        {
          "name": "_token",
          "type": "address"
        },
        {
          "name": "_withdrawalMax",
          "type": "uint256"
        }
      ],
      "name": "finalizeExits",
      "outputs": [],
      "payable": false,
      "stateMutability": "nonpayable",
      "type": "function"
    },
    {
      "constant": true,
      "inputs": [
        {
          "name": "_blockNumber",
          "type": "uint256"
        }
      ],
      "name": "getPlasmaBlock",
      "outputs": [
        {
          "name": "",
          "type": "bytes32"
        },
        {
          "name": "",
          "type": "uint256"
        }
      ],
      "payable": false,
      "stateMutability": "view",
      "type": "function"
    },
    {
      "constant": true,
      "inputs": [],
      "name": "getDepositBlock",
      "outputs": [
        {
          "name": "",
          "type": "uint256"
        }
      ],
      "payable": false,
      "stateMutability": "view",
      "type": "function"
    },
    {
      "constant": true,
      "inputs": [
        {
          "name": "_utxoPos",
          "type": "uint256"
        }
      ],
      "name": "getExit",
      "outputs": [
        {
          "name": "",
          "type": "address"
        },
        {
          "name": "",
          "type": "address"
        },
        {
          "name": "",
          "type": "uint256"
        }
      ],
      "payable": false,
      "stateMutability": "view",
      "type": "function"
    }
  ],
  "bytecode": "0x608060405234801561001057600080fd5b50336000806101000a81548173ffffffffffffffffffffffffffffffffffffffff021916908373ffffffffffffffffffffffffffffffffffffffff1602179055506103e86001819055506001600281905550600160038190555061409b806100796000396000f30060806040526004361061013e576000357c0100000000000000000000000000000000000000000000000000000000900463ffffffff1680631c91a6b91461014357806332773ba314610235578063342de1791461038457806340b8d53a1461045e578063570ca7351461049e578063776d1a01146104f55780637a95f1e81461053857806386972254146105635780638bfe0aec146105b3578063a831fa0714610611578063a85c682a1461063c578063a98c7f2c14610689578063b2153e6b146106b4578063baa4769414610704578063bcd5926114610735578063cfe7d85514610760578063d0e30db01461078b578063d11f045c14610795578063de5a9f0914610818578063e60f1ff114610843578063eadca9b8146108ea578063f7cdf47c14610941578063f7fd1d1314610998578063f82f7a4b146109db575b600080fd5b61023360048036038101908080359060200190929190803590602001908201803590602001908080601f0160208091040260200160405190810160405280939291908181526020018383808284378201915050505050509192919290803590602001908201803590602001908080601f0160208091040260200160405190810160405280939291908181526020018383808284378201915050505050509192919290803590602001908201803590602001908080601f0160208091040260200160405190810160405280939291908181526020018383808284378201915050505050509192919290505050610a25565b005b34801561024157600080fd5b506103826004803603810190808035906020019092919080359060200190929190803590602001908201803590602001908080601f0160208091040260200160405190810160405280939291908181526020018383808284378201915050505050509192919290803590602001908201803590602001908080601f0160208091040260200160405190810160405280939291908181526020018383808284378201915050505050509192919290803590602001908201803590602001908080601f0160208091040260200160405190810160405280939291908181526020018383808284378201915050505050509192919290803590602001908201803590602001908080601f0160208091040260200160405190810160405280939291908181526020018383808284378201915050505050509192919290505050610e82565b005b34801561039057600080fd5b506103af60048036038101908080359060200190929190505050611246565b604051808573ffffffffffffffffffffffffffffffffffffffff1673ffffffffffffffffffffffffffffffffffffffff1681526020018473ffffffffffffffffffffffffffffffffffffffff1673ffffffffffffffffffffffffffffffffffffffff1681526020018373ffffffffffffffffffffffffffffffffffffffff1673ffffffffffffffffffffffffffffffffffffffff16815260200182815260200194505050505060405180910390f35b61049c600480360381019080803573ffffffffffffffffffffffffffffffffffffffff169060200190929190803590602001909291905050506112d6565b005b3480156104aa57600080fd5b506104b3611449565b604051808273ffffffffffffffffffffffffffffffffffffffff1673ffffffffffffffffffffffffffffffffffffffff16815260200191505060405180910390f35b34801561050157600080fd5b50610536600480360381019080803573ffffffffffffffffffffffffffffffffffffffff16906020019092919050505061146e565b005b34801561054457600080fd5b5061054d61150f565b6040518082815260200191505060405180910390f35b34801561056f57600080fd5b5061058e60048036038101908080359060200190929190505050611515565b6040518083600019166000191681526020018281526020019250505060405180910390f35b3480156105bf57600080fd5b506105f4600480360381019080803573ffffffffffffffffffffffffffffffffffffffff16906020019092919050505061154f565b604051808381526020018281526020019250505060405180910390f35b34801561061d57600080fd5b50610626611662565b6040518082815260200191505060405180910390f35b34801561064857600080fd5b50610687600480360381019080803573ffffffffffffffffffffffffffffffffffffffff16906020019092919080359060200190929190505050611668565b005b34801561069557600080fd5b5061069e611fa1565b6040518082815260200191505060405180910390f35b3480156106c057600080fd5b506106df60048036038101908080359060200190929190505050611fa7565b6040518083600019166000191681526020018281526020019250505060405180910390f35b34801561071057600080fd5b506107336004803603810190808035600019169060200190929190505050611fcb565b005b34801561074157600080fd5b5061074a612149565b6040518082815260200191505060405180910390f35b34801561076c57600080fd5b5061077561217b565b6040518082815260200191505060405180910390f35b610793612181565b005b3480156107a157600080fd5b506107d6600480360381019080803573ffffffffffffffffffffffffffffffffffffffff169060200190929190505050612401565b604051808273ffffffffffffffffffffffffffffffffffffffff1673ffffffffffffffffffffffffffffffffffffffff16815260200191505060405180910390f35b34801561082457600080fd5b5061082d612434565b6040518082815260200191505060405180910390f35b34801561084f57600080fd5b5061086e6004803603810190808035906020019092919050505061243c565b604051808473ffffffffffffffffffffffffffffffffffffffff1673ffffffffffffffffffffffffffffffffffffffff1681526020018373ffffffffffffffffffffffffffffffffffffffff1673ffffffffffffffffffffffffffffffffffffffff168152602001828152602001935050505060405180910390f35b3480156108f657600080fd5b5061092b600480360381019080803573ffffffffffffffffffffffffffffffffffffffff1690602001909291905050506124d3565b6040518082815260200191505060405180910390f35b34801561094d57600080fd5b506109566124eb565b604051808273ffffffffffffffffffffffffffffffffffffffff1673ffffffffffffffffffffffffffffffffffffffff16815260200191505060405180910390f35b3480156109a457600080fd5b506109d9600480360381019080803573ffffffffffffffffffffffffffffffffffffffff1690602001909291905050506124f0565b005b610a2360048036038101908080359060200190929190803573ffffffffffffffffffffffffffffffffffffffff1690602001909291908035906020019092919050505061260b565b005b6000806000610a32613f2a565b60008063499602d28034141515610ab1576040517f08c379a00000000000000000000000000000000000000000000000000000000081526004018080602001828103825260178152602001807f496e76616c69642061747461636865642076616c75652e00000000000000000081525060200191505060405180910390fd5b633b9aca008b811515610ac057fe5b049650612710633b9aca008c811515610ad557fe5b06811515610adf57fe5b0495506127108602633b9aca0088028c03039450610b06858b6128d290919063ffffffff16565b9350836000015173ffffffffffffffffffffffffffffffffffffffff163373ffffffffffffffffffffffffffffffffffffffff16141515610baf576040517f08c379a00000000000000000000000000000000000000000000000000000000081526004018080602001828103825260168152602001807f53656e646572206d75737420626520657869746f722e0000000000000000000081525060200191505060405180910390fd5b60046000888152602001908152602001600020600001549250896040518082805190602001908083835b602083101515610bfe5780518252602082019150602081019050602083039250610bd9565b6001836020036101000a0380198251168184511680821785525050505050509050019150506040518091039020610c3889600060826129f2565b60405180836000191660001916815260200182805190602001908083835b602083101515610c7b5780518252602082019150602081019050602083039250610c56565b6001836020036101000a0380198251168184511680821785525050505050509050019250505060405180910390209150610d1d8a6040518082805190602001908083835b602083101515610ce45780518252602082019150602081019050602083039250610cbf565b6001836020036101000a03801982511681845116808217855250505050505090500191505060405180910390208486606001518b612b0e565b1515610d91576040517f08c379a00000000000000000000000000000000000000000000000000000000081526004018080602001828103825260168152602001807f5369676e617475726573206d757374206d617463682e0000000000000000000081525060200191505060405180910390fd5b610dac86848b8560001916612cce909392919063ffffffff16565b1515610e46576040517f08c379a00000000000000000000000000000000000000000000000000000000081526004018080602001828103825260248152602001807f5472616e73616374696f6e204d65726b6c652070726f6f6620697320696e766181526020017f6c69642e0000000000000000000000000000000000000000000000000000000081525060400191505060405180910390fd5b610e758b856000015186602001518760400151600460008d815260200190815260200160002060010154612efb565b5050505050505050505050565b6000806000806000806000610ea08c8c6135a490919063ffffffff16565b9650612710633b9aca008e811515610eb457fe5b06811515610ebe57fe5b04955060046000633b9aca008f811515610ed457fe5b0481526020019081526020016000206000015494508a6040518082805190602001908083835b602083101515610f1f5780518252602082019150602081019050602083039250610efa565b6001836020036101000a03801982511681845116808217855250505050505090500191505060405180910390209350838560405180836000191660001916815260200182600019166000191681526020019250505060405180910390209250838960405180836000191660001916815260200182805190602001908083835b602083101515610fc35780518252602082019150602081019050602083039250610f9e565b6001836020036101000a03801982511681845116808217855250505050505090500192505050604051809103902091506005600088815260200190815260200160002060000160009054906101000a900473ffffffffffffffffffffffffffffffffffffffff1690506110368389613642565b73ffffffffffffffffffffffffffffffffffffffff168173ffffffffffffffffffffffffffffffffffffffff161415156110fe576040517f08c379a000000000000000000000000000000000000000000000000000000000815260040180806020018281038252602f8152602001807f436f6e6669726d6174696f6e207369676e6174757265206d757374206265207381526020017f69676e6564206279206f776e65722e000000000000000000000000000000000081525060400191505060405180910390fd5b61111986868c8560001916612cce909392919063ffffffff16565b15156111b3576040517f08c379a00000000000000000000000000000000000000000000000000000000081526004018080602001828103825260248152602001807f5472616e73616374696f6e204d65726b6c652070726f6f6620697320696e766181526020017f6c69642e0000000000000000000000000000000000000000000000000000000081525060400191505060405180910390fd5b6005600088815260200190815260200160002060000160006101000a81549073ffffffffffffffffffffffffffffffffffffffff02191690553373ffffffffffffffffffffffffffffffffffffffff166108fc63499602d29081150290604051600060405180830381858888f19350505050158015611236573d6000803e3d6000fd5b5050505050505050505050505050565b60056020528060005260406000206000915090508060000160009054906101000a900473ffffffffffffffffffffffffffffffffffffffff16908060010160009054906101000a900473ffffffffffffffffffffffffffffffffffffffff16908060020160009054906101000a900473ffffffffffffffffffffffffffffffffffffffff16908060030154905084565b6000809054906101000a900473ffffffffffffffffffffffffffffffffffffffff1673ffffffffffffffffffffffffffffffffffffffff163373ffffffffffffffffffffffffffffffffffffffff1614151561139a576040517f08c379a00000000000000000000000000000000000000000000000000000000081526004018080602001828103825260188152602001807f53656e646572206d757374206265206f70657261746f722e000000000000000081525060200191505060405180910390fd5b63499602d28034141515611416576040517f08c379a00000000000000000000000000000000000000000000000000000000081526004018080602001828103825260178152602001807f496e76616c69642061747461636865642076616c75652e00000000000000000081525060200191505060405180910390fd5b61142860035433858560014201612efb565b61143e600160035461380390919063ffffffff16565b600381905550505050565b6000809054906101000a900473ffffffffffffffffffffffffffffffffffffffff1681565b600073ffffffffffffffffffffffffffffffffffffffff16600760009054906101000a900473ffffffffffffffffffffffffffffffffffffffff1673ffffffffffffffffffffffffffffffffffffffff161415156114cb57600080fd5b80600760006101000a81548173ffffffffffffffffffffffffffffffffffffffff021916908373ffffffffffffffffffffffffffffffffffffffff16021790555050565b60015481565b6000806004600084815260200190815260200160002060000154600460008581526020019081526020016000206001015491509150915091565b600080600660008473ffffffffffffffffffffffffffffffffffffffff1673ffffffffffffffffffffffffffffffffffffffff16815260200190815260200160002060009054906101000a900473ffffffffffffffffffffffffffffffffffffffff1673ffffffffffffffffffffffffffffffffffffffff1663d6362e976040518163ffffffff167c01000000000000000000000000000000000000000000000000000000000281526004016040805180830381600087803b15801561161457600080fd5b505af1158015611628573d6000803e3d6000fd5b505050506040513d604081101561163e57600080fd5b81019080805190602001909291908051906020019092919050505091509150915091565b6103e881565b6000806000611675613f7f565b6000806000806000808b73ffffffffffffffffffffffffffffffffffffffff16600073ffffffffffffffffffffffffffffffffffffffff16141515611722576040517f08c379a00000000000000000000000000000000000000000000000000000000081526004018080602001828103825260128152602001807f546f6b656e206d757374206265204554482e000000000000000000000000000081525060200191505060405180910390fd5b61172b8c61154f565b809b50819a50505060019850600660008d73ffffffffffffffffffffffffffffffffffffffff1673ffffffffffffffffffffffffffffffffffffffff16815260200190815260200160002060009054906101000a900473ffffffffffffffffffffffffffffffffffffffff169750600560008b8152602001908152602001600020608060405190810160405290816000820160009054906101000a900473ffffffffffffffffffffffffffffffffffffffff1673ffffffffffffffffffffffffffffffffffffffff1673ffffffffffffffffffffffffffffffffffffffff1681526020016001820160009054906101000a900473ffffffffffffffffffffffffffffffffffffffff1673ffffffffffffffffffffffffffffffffffffffff1673ffffffffffffffffffffffffffffffffffffffff1681526020016002820160009054906101000a900473ffffffffffffffffffffffffffffffffffffffff1673ffffffffffffffffffffffffffffffffffffffff1673ffffffffffffffffffffffffffffffffffffffff16815260200160038201548152505096505b42891080156118d557508a86105b15611f27578580600101965050600560008b8152602001908152602001600020608060405190810160405290816000820160009054906101000a900473ffffffffffffffffffffffffffffffffffffffff1673ffffffffffffffffffffffffffffffffffffffff1673ffffffffffffffffffffffffffffffffffffffff1681526020016001820160009054906101000a900473ffffffffffffffffffffffffffffffffffffffff1673ffffffffffffffffffffffffffffffffffffffff1673ffffffffffffffffffffffffffffffffffffffff1681526020016002820160009054906101000a900473ffffffffffffffffffffffffffffffffffffffff1673ffffffffffffffffffffffffffffffffffffffff1673ffffffffffffffffffffffffffffffffffffffff1681526020016003820154815250509650866040015194508473ffffffffffffffffffffffffffffffffffffffff16639d80c8186040518163ffffffff167c0100000000000000000000000000000000000000000000000000000000028152600401602060405180830381600087803b158015611a7a57600080fd5b505af1158015611a8e573d6000803e3d6000fd5b505050506040513d6020811015611aa457600080fd5b81019080805190602001909291905050509350600090505b83811015611ce6578473ffffffffffffffffffffffffffffffffffffffff1663aca4dc31826040518263ffffffff167c0100000000000000000000000000000000000000000000000000000000028152600401808281526020019150506040805180830381600087803b158015611b3257600080fd5b505af1158015611b46573d6000803e3d6000fd5b505050506040513d6040811015611b5c57600080fd5b81019080805190602001909291908051906020019092919050505080935081945050508473ffffffffffffffffffffffffffffffffffffffff166323b872dd8330866040518463ffffffff167c0100000000000000000000000000000000000000000000000000000000028152600401808473ffffffffffffffffffffffffffffffffffffffff1673ffffffffffffffffffffffffffffffffffffffff1681526020018373ffffffffffffffffffffffffffffffffffffffff1673ffffffffffffffffffffffffffffffffffffffff1681526020018281526020019350505050602060405180830381600087803b158015611c5657600080fd5b505af1158015611c6a573d6000803e3d6000fd5b505050506040513d6020811015611c8057600080fd5b8101908080519060200190929190505050508173ffffffffffffffffffffffffffffffffffffffff166108fc849081150290604051600060405180830381858888f19350505050158015611cd8573d6000803e3d6000fd5b508080600101915050611abc565b611cf38760400151613821565b600073ffffffffffffffffffffffffffffffffffffffff16876000015173ffffffffffffffffffffffffffffffffffffffff16141515611d7d57866000015173ffffffffffffffffffffffffffffffffffffffff166108fc63499602d29081150290604051600060405180830381858888f19350505050158015611d7b573d6000803e3d6000fd5b505b8773ffffffffffffffffffffffffffffffffffffffff1663b07576ac6040518163ffffffff167c01000000000000000000000000000000000000000000000000000000000281526004016040805180830381600087803b158015611de057600080fd5b505af1158015611df4573d6000803e3d6000fd5b505050506040513d6040811015611e0a57600080fd5b8101908080519060200190929190805190602001909291905050505050600560008b815260200190815260200160002060000160006101000a81549073ffffffffffffffffffffffffffffffffffffffff021916905560008873ffffffffffffffffffffffffffffffffffffffff1663bda1504b6040518163ffffffff167c0100000000000000000000000000000000000000000000000000000000028152600401602060405180830381600087803b158015611ec657600080fd5b505af1158015611eda573d6000803e3d6000fd5b505050506040513d6020811015611ef057600080fd5b81019080805190602001909291905050501115611f1d57611f108c61154f565b809b50819a505050611f22565b611f93565b6118c7565b7fc81b332a0a78fd9f3b0a3d590d05956f49978facdb03fb62e888d7afba1917183387604051808373ffffffffffffffffffffffffffffffffffffffff1673ffffffffffffffffffffffffffffffffffffffff1681526020018281526020019250505060405180910390a15b505050505050505050505050565b60025481565b60046020528060005260406000206000915090508060000154908060010154905082565b6000809054906101000a900473ffffffffffffffffffffffffffffffffffffffff1673ffffffffffffffffffffffffffffffffffffffff163373ffffffffffffffffffffffffffffffffffffffff1614151561208f576040517f08c379a00000000000000000000000000000000000000000000000000000000081526004018080602001828103825260188152602001807f53656e646572206d757374206265206f70657261746f722e000000000000000081525060200191505060405180910390fd5b6040805190810160405280826000191681526020014281525060046000600154815260200190815260200160002060008201518160000190600019169055602082015181600101559050506120f16103e860015461380390919063ffffffff16565b60018190555060016002819055507f3be20e672590051e92360aa9dd9247e52541ad35d7a0297ff9e0f94e993295e981426040518083600019166000191681526020018281526020019250505060405180910390a150565b60006121766002546121686103e860015461397790919063ffffffff16565b61380390919063ffffffff16565b905090565b60035481565b6000806103e86002541015156121ff576040517f08c379a00000000000000000000000000000000000000000000000000000000081526004018080602001828103825260168152602001807f4465706f736974206c696d697420726561636865642e0000000000000000000081525060200191505060405180910390fd5b33600034604051602001808473ffffffffffffffffffffffffffffffffffffffff1673ffffffffffffffffffffffffffffffffffffffff166c010000000000000000000000000281526014018373ffffffffffffffffffffffffffffffffffffffff1673ffffffffffffffffffffffffffffffffffffffff166c0100000000000000000000000002815260140182815260200193505050506040516020818303038152906040526040518082805190602001908083835b6020831015156122db57805182526020820191506020810190506020830392506122b6565b6001836020036101000a03801982511681845116808217855250505050505090500191505060405180910390209150612312612149565b905060408051908101604052808360001916815260200142815250600460008381526020019081526020016000206000820151816000019060001916905560208201518160010155905050612373600160025461380390919063ffffffff16565b600281905550803373ffffffffffffffffffffffffffffffffffffffff167fd2f8022f659fd9c8c558f30c00fd5ee7038f7cb56da45095c3e0e7d48b3e0c4b600034604051808373ffffffffffffffffffffffffffffffffffffffff1673ffffffffffffffffffffffffffffffffffffffff1681526020018281526020019250505060405180910390a35050565b60066020528060005260406000206000915054906101000a900473ffffffffffffffffffffffffffffffffffffffff1681565b63499602d281565b60008060006005600085815260200190815260200160002060000160009054906101000a900473ffffffffffffffffffffffffffffffffffffffff166005600086815260200190815260200160002060010160009054906101000a900473ffffffffffffffffffffffffffffffffffffffff1660056000878152602001908152602001600020600301549250925092509193909250565b60096020528060005260406000206000915090505481565b600081565b600073ffffffffffffffffffffffffffffffffffffffff16600660008073ffffffffffffffffffffffffffffffffffffffff1673ffffffffffffffffffffffffffffffffffffffff16815260200190815260200160002060009054906101000a900473ffffffffffffffffffffffffffffffffffffffff1673ffffffffffffffffffffffffffffffffffffffff1614151561258a57600080fd5b80600660008073ffffffffffffffffffffffffffffffffffffffff1673ffffffffffffffffffffffffffffffffffffffff16815260200190815260200160002060006101000a81548173ffffffffffffffffffffffffffffffffffffffff021916908373ffffffffffffffffffffffffffffffffffffffff16021790555050565b600080600063499602d2803414151561268c576040517f08c379a00000000000000000000000000000000000000000000000000000000081526004018080602001828103825260178152602001807f496e76616c69642061747461636865642076616c75652e00000000000000000081525060200191505060405180910390fd5b633b9aca008781151561269b57fe5b04935060006103e8858115156126ad57fe5b061415151561274a576040517f08c379a00000000000000000000000000000000000000000000000000000000081526004018080602001828103825260298152602001807f5265666572656e63656420626c6f636b206d7573742062652061206465706f7381526020017f697420626c6f636b2e000000000000000000000000000000000000000000000081525060400191505060405180910390fd5b60046000858152602001908152602001600020600001549250338686604051808473ffffffffffffffffffffffffffffffffffffffff1673ffffffffffffffffffffffffffffffffffffffff166c010000000000000000000000000281526014018373ffffffffffffffffffffffffffffffffffffffff1673ffffffffffffffffffffffffffffffffffffffff166c01000000000000000000000000028152601401828152602001935050505060405180910390209150816000191683600019161415156128a6576040517f08c379a00000000000000000000000000000000000000000000000000000000081526004018080602001828103825260228152602001807f526f6f742068617368206d757374206d61746368206465706f7369742068617381526020017f682e00000000000000000000000000000000000000000000000000000000000081525060400191505060405180910390fd5b6128c987338888600460008a815260200190815260200160002060010154612efb565b50505050505050565b6128da613f2a565b60606128ed6128e885613990565b6139e6565b9050608060405190810160405280612921838660020260070181518110151561291257fe5b90602001906020020151613b2b565b73ffffffffffffffffffffffffffffffffffffffff16815260200161295d83600681518110151561294e57fe5b90602001906020020151613b2b565b73ffffffffffffffffffffffffffffffffffffffff16815260200161299e838660020260080181518110151561298f57fe5b90602001906020020151613bcb565b81526020016129c48360038151811015156129b557fe5b90602001906020020151613bcb565b6129e58460008151811015156129d657fe5b90602001906020020151613bcb565b0281525091505092915050565b606080828401855110151515612a96576040517f08c379a00000000000000000000000000000000000000000000000000000000081526004018080602001828103825260308152602001807f536c696365206c656e6774682063616e6e6f74206265206c6f6e67657220746881526020017f616e205f6279746573206c656e6774680000000000000000000000000000000081525060400191505060405180910390fd5b821560008114612ab157604051915060208201604052612b02565b6040519150601f8416801560200281840101858101878315602002848b0101015b81831015612aef5780518352602083019250602081019050612ad2565b50868552601f19601f8301166040525050505b50809150509392505050565b6000606080606060008060006060600060418a51811515612b2b57fe5b06148015612b3c5750610104895111155b1515612bb0576040517f08c379a00000000000000000000000000000000000000000000000000000000081526004018080602001828103825260198152602001807f496e76616c6964207369676e6174757265206c656e6774682e0000000000000081525060200191505060405180910390fd5b612bbd89600060416129f2565b9650612bcb896041806129f2565b9550612bda89608260416129f2565b94508b8b604051808360001916600019168152602001826000191660001916815260200192505050604051809103902093506001925060019150612c1e8486613642565b73ffffffffffffffffffffffffffffffffffffffff16612c3e8d89613642565b73ffffffffffffffffffffffffffffffffffffffff1614925060008a1115612cb357612c6d8960c360416129f2565b9050612c798482613642565b73ffffffffffffffffffffffffffffffffffffffff16612c998d88613642565b73ffffffffffffffffffffffffffffffffffffffff161491505b828015612cbd5750815b975050505050505050949350505050565b60008060008060008060208751811515612ce457fe5b06141515612d5a576040517f08c379a00000000000000000000000000000000000000000000000000000000081526004018080602001828103825260158152602001807f496e76616c69642070726f6f66206c656e6774682e000000000000000000000081525060200191505060405180910390fd5b889250879150602090505b855181111515612ee2578086015193506000600289811515612d8357fe5b061415612e2b5782846040516020018083600019166000191681526020018260001916600019168152602001925050506040516020818303038152906040526040518082805190602001908083835b602083101515612df75780518252602082019150602081019050602083039250612dd2565b6001836020036101000a03801982511681845116808217855250505050505090500191505060405180910390209250612ec8565b83836040516020018083600019166000191681526020018260001916600019168152602001925050506040516020818303038152906040526040518082805190602001908083835b602083101515612e985780518252602082019150602081019050602083039250612e73565b6001836020036101000a038019825116818451168082178552505050505050905001915050604051809103902092505b600282811515612ed457fe5b049150602081019050612d65565b8660001916836000191614945050505050949350505050565b600080600080600073ffffffffffffffffffffffffffffffffffffffff16600660008973ffffffffffffffffffffffffffffffffffffffff1673ffffffffffffffffffffffffffffffffffffffff16815260200190815260200160002060009054906101000a900473ffffffffffffffffffffffffffffffffffffffff1673ffffffffffffffffffffffffffffffffffffffff1614151515613005576040517f08c379a00000000000000000000000000000000000000000000000000000000081526004018080602001828103825260188152602001807f4d75737420657869742061206b6e6f776e20746f6b656e2e000000000000000081525060200191505060405180910390fd5b60008611151561307d576040517f08c379a000000000000000000000000000000000000000000000000000000000815260040180806020018281038252601a8152602001807f457869742076616c75652063616e6e6f74206265207a65726f2e00000000000081525060200191505060405180910390fd5b6000600560008b81526020019081526020016000206003015414151561310b576040517f08c379a000000000000000000000000000000000000000000000000000000000815260040180806020018281038252601a8152602001807f457869742063616e6e6f7420616c72656164792065786973742e00000000000081525060200191505060405180910390fd5b61311f62127500860162093a804201613c0d565b9350600660008873ffffffffffffffffffffffffffffffffffffffff1673ffffffffffffffffffffffffffffffffffffffff16815260200190815260200160002060009054906101000a900473ffffffffffffffffffffffffffffffffffffffff1692508273ffffffffffffffffffffffffffffffffffffffff16631d834a1b858b6040518363ffffffff167c01000000000000000000000000000000000000000000000000000000000281526004018083815260200182815260200192505050600060405180830381600087803b1580156131fa57600080fd5b505af115801561320e573d6000803e3d6000fd5b5050505061321a613c27565b91508190508073ffffffffffffffffffffffffffffffffffffffff1663b792e6ec87336040518363ffffffff167c0100000000000000000000000000000000000000000000000000000000028152600401808381526020018273ffffffffffffffffffffffffffffffffffffffff1673ffffffffffffffffffffffffffffffffffffffff16815260200192505050600060405180830381600087803b1580156132c257600080fd5b505af11580156132d6573d6000803e3d6000fd5b505050506080604051908101604052808973ffffffffffffffffffffffffffffffffffffffff1681526020018873ffffffffffffffffffffffffffffffffffffffff1681526020018373ffffffffffffffffffffffffffffffffffffffff16815260200187815250600560008b815260200190815260200160002060008201518160000160006101000a81548173ffffffffffffffffffffffffffffffffffffffff021916908373ffffffffffffffffffffffffffffffffffffffff16021790555060208201518160010160006101000a81548173ffffffffffffffffffffffffffffffffffffffff021916908373ffffffffffffffffffffffffffffffffffffffff16021790555060408201518160020160006101000a81548173ffffffffffffffffffffffffffffffffffffffff021916908373ffffffffffffffffffffffffffffffffffffffff16021790555060608201518160030155905050600880549050600960008473ffffffffffffffffffffffffffffffffffffffff1673ffffffffffffffffffffffffffffffffffffffff1681526020019081526020016000208190555060088290806001815401808255809150509060018203906000526020600020016000909192909190916101000a81548173ffffffffffffffffffffffffffffffffffffffff021916908373ffffffffffffffffffffffffffffffffffffffff16021790555050883373ffffffffffffffffffffffffffffffffffffffff167f09cf025778658647f8893deca224ba7758797c2a6a28f7ce9d2a75c5b6fe9190848a8a604051808473ffffffffffffffffffffffffffffffffffffffff1673ffffffffffffffffffffffffffffffffffffffff1681526020018373ffffffffffffffffffffffffffffffffffffffff1673ffffffffffffffffffffffffffffffffffffffff168152602001828152602001935050505060405180910390a3505050505050505050565b6000606060006135bb6135b686613990565b6139e6565b91506003840290506135e682826002018151811015156135d757fe5b90602001906020020151613bcb565b61271061360c84846001018151811015156135fd57fe5b90602001906020020151613bcb565b02633b9aca00613635858560000181518110151561362657fe5b90602001906020020151613bcb565b0201019250505092915050565b600080600080604185511415156136c1576040517f08c379a00000000000000000000000000000000000000000000000000000000081526004018080602001828103825260198152602001807f496e76616c6964207369676e6174757265206c656e6774682e0000000000000081525060200191505060405180910390fd5b6020850151925060408501519150606085015160001a9050601b8160ff1610156136ec57601b810190505b601b8160ff16141580156137045750601c8160ff1614155b15613777576040517f08c379a000000000000000000000000000000000000000000000000000000000815260040180806020018281038252601a8152602001807f496e76616c6964207369676e61747572652076657273696f6e2e00000000000081525060200191505060405180910390fd5b600186828585604051600081526020016040526040518085600019166000191681526020018460ff1660ff1681526020018360001916600019168152602001826000191660001916815260200194505050505060206040516020810390808403906000865af11580156137ee573d6000803e3d6000fd5b50505060206040510351935050505092915050565b600080828401905083811015151561381757fe5b8091505092915050565b6000806000600960008573ffffffffffffffffffffffffffffffffffffffff1673ffffffffffffffffffffffffffffffffffffffff168152602001908152602001600020549250613881600160088054905061397790919063ffffffff16565b915060088281548110151561389257fe5b9060005260206000200160009054906101000a900473ffffffffffffffffffffffffffffffffffffffff169050806008848154811015156138cf57fe5b9060005260206000200160006101000a81548173ffffffffffffffffffffffffffffffffffffffff021916908373ffffffffffffffffffffffffffffffffffffffff16021790555082600960008373ffffffffffffffffffffffffffffffffffffffff1673ffffffffffffffffffffffffffffffffffffffff1681526020019081526020016000208190555060088054809190600190036139709190613fea565b5050505050565b600082821115151561398557fe5b818303905092915050565b613998614016565b600080835114156139c157604080519081016040528060008152602001600081525091506139e0565b6020830190506040805190810160405280845181526020018281525091505b50919050565b60606000806000806139f786613d63565b1515613a6b576040517f08c379a00000000000000000000000000000000000000000000000000000000081526004018080602001828103825260148152602001807f4974656d206d7573742062652061206c6973742e00000000000000000000000081525060200191505060405180910390fd5b613a7486613d9a565b935083604051908082528060200260200182016040528015613ab057816020015b613a9d614030565b815260200190600190039081613a955790505b509450613ac08660200151613df4565b8660200151019250600090505b83811015613b2257613ade83613e7a565b91506040805190810160405280838152602001848152508582815181101515613b0357fe5b9060200190602002018190525081830192508080600101915050613acd565b50505050919050565b600080600060158460000151141515613bac576040517f08c379a00000000000000000000000000000000000000000000000000000000081526004018080602001828103825260208152602001807f4974656d206d7573742062652032312063686172616374657273206c6f6e672e81525060200191505060405180910390fd5b60018460200151019150600c6101000a82510490508092505050919050565b6000806000806000613be08660200151613df4565b9350838660000151039250838660200151019150826020036101000a825104905080945050505050919050565b600081831015613c1d5781613c1f565b825b905092915050565b60006060600080606060405190810160405280603f81526020017f600034603b57603080600f833981f36000368180378080368173bebebebebebe81526020017fbebebebebebebebebebebebebebe5af43d82803e15602c573d90f35b3d90fd008152509250600760009054906101000a900473ffffffffffffffffffffffffffffffffffffffff166c01000000000000000000000000029150600090505b6014811015613d4e578181601481101515613cdd57fe5b1a7f0100000000000000000000000000000000000000000000000000000000000000028382601a01815181101515613d1157fe5b9060200101907effffffffffffffffffffffffffffffffffffffffffffffffffffffffffffff1916908160001a9053508080600101915050613cc6565b82516020840181816000f09550505050505090565b600080600083602001519050805160001a915060c060ff168260ff161015613d8e5760009250613d93565b600192505b5050919050565b60008060008060009250613db18560200151613df4565b8560200151019150846000015185602001510190505b80821015613de957613dd882613e7a565b820191508280600101935050613dc7565b829350505050919050565b600080825160001a9050608060ff16811015613e135760009150613e74565b60b860ff16811080613e38575060c060ff168110158015613e37575060f860ff1681105b5b15613e465760019150613e74565b60c060ff16811015613e655760018060b80360ff168203019150613e74565b60018060f80360ff1682030191505b50919050565b600080825160001a9050608060ff16811015613e995760019150613f24565b60b860ff16811015613eb6576001608060ff168203019150613f24565b60c060ff16811015613ee65760b78103600184019350806020036101000a84510460018201810193505050613f23565b60f860ff16811015613f0357600160c060ff168203019150613f24565b60f78103600184019350806020036101000a845104600182018101935050505b5b50919050565b608060405190810160405280600073ffffffffffffffffffffffffffffffffffffffff168152602001600073ffffffffffffffffffffffffffffffffffffffff16815260200160008152602001600081525090565b608060405190810160405280600073ffffffffffffffffffffffffffffffffffffffff168152602001600073ffffffffffffffffffffffffffffffffffffffff168152602001600073ffffffffffffffffffffffffffffffffffffffff168152602001600081525090565b81548183558181111561401157818360005260206000209182019101614010919061404a565b5b505050565b604080519081016040528060008152602001600081525090565b604080519081016040528060008152602001600081525090565b61406c91905b80821115614068576000816000905550600101614050565b5090565b905600a165627a7a72305820a3f83a813b82ff880fa46aa2c8b1595010be563c13a8d969c40647af74605c930029",
  "source": "pragma solidity ^0.4.0;\r\n\r\nimport \"./SafeMath.sol\";\r\nimport \"./Math.sol\";\r\nimport \"./PlasmaRLP.sol\";\r\nimport \"./Merkle.sol\";\r\nimport \"./Validate.sol\";\r\nimport \"./PriorityQueue.sol\";\r\nimport \"./PlasmaToken.sol\";\r\n\r\n\r\n/**\r\n * @title RootChain\r\n * @dev This contract secures a utxo payments plasma child chain to ethereum.\r\n */\r\ncontract RootChain {\r\n    using SafeMath for uint256;\r\n    using Merkle for bytes32;\r\n    using PlasmaRLP for bytes;\r\n\r\n\r\n    /*\r\n     * Events\r\n     */\r\n\r\n    event Deposit(\r\n        address indexed depositor,\r\n        uint256 indexed depositBlock,\r\n        address token,\r\n        uint256 amount\r\n    );\r\n\r\n    event ExitStarted(\r\n        address indexed exitor,\r\n        uint256 indexed utxoPos,\r\n        address new_token,\r\n        address token,\r\n        uint256 amount\r\n    );\r\n\r\n    event BlockSubmitted(\r\n        bytes32 root,\r\n        uint256 timestamp\r\n    );\r\n\r\n    event TokenAdded(\r\n        address token\r\n    );\r\n\r\n\r\n    /*\r\n     * Storage\r\n     */\r\n    uint256 public constant EXIT_BOND = 1234567890;\r\n    uint256 public constant CHILD_BLOCK_INTERVAL = 1000;\r\n    address public constant ETHEREUM = address(0);\r\n\r\n    address public operator;\r\n\r\n    uint256 public currentChildBlock;\r\n    uint256 public currentDepositBlock;\r\n    uint256 public currentFeeExit;\r\n\r\n    mapping (uint256 => PlasmaBlock) public plasmaBlocks;\r\n    mapping (uint256 => Exit) public exits;\r\n    mapping (address => address) public exitsQueues;\r\n    address target;\r\n\r\n    address[] openWithdrawals;\r\n    mapping(address => uint) public openWithdrawalIndex;\r\n\r\n    struct Exit {\r\n        address owner;\r\n        address token;\r\n        address plasmaToken;\r\n        uint256 amount;\r\n    }\r\n\r\n    struct PlasmaBlock {\r\n        bytes32 root;\r\n        uint256 timestamp;\r\n    }\r\n\r\n\r\n    /*\r\n     * Modifiers\r\n     */\r\n\r\n    modifier onlyOperator() {\r\n        require(msg.sender == operator, \"Sender must be operator.\");\r\n        _;\r\n    }\r\n\r\n    modifier onlyWithValue(uint256 _value) {\r\n        require(msg.value == _value, \"Invalid attached value.\");\r\n        _;\r\n    }\r\n\r\n\r\n    /*\r\n     * Constructor\r\n     */\r\n\r\n    constructor() public {\r\n        operator = msg.sender;\r\n        currentChildBlock = CHILD_BLOCK_INTERVAL;\r\n        currentDepositBlock = 1;\r\n        currentFeeExit = 1;\r\n        // Support only ETH on deployment; other tokens need\r\n        // to be added explicitly.\r\n        \r\n    }\r\n\r\n    function setTarget(address _target) public {\r\n        require(target == address(0));\r\n        target = _target;\r\n    }\r\n\r\n    function setPriority(address _priority) public{\r\n        require(exitsQueues[ETHEREUM]  == address(0));\r\n        exitsQueues[ETHEREUM] = _priority;\r\n    }\r\n\r\n\r\n    /*\r\n     * Public Functions\r\n     */\r\n\r\n    /**\r\n     * @dev Allows Plasma chain operator to submit block root.\r\n     * @param _root The root of a child chain block.\r\n     */\r\n    function submitBlock(bytes32 _root) public onlyOperator {\r\n        plasmaBlocks[currentChildBlock] = PlasmaBlock({\r\n            root: _root,\r\n            timestamp: block.timestamp\r\n        });\r\n\r\n        // Update block numbers.\r\n        currentChildBlock = currentChildBlock.add(CHILD_BLOCK_INTERVAL);\r\n        currentDepositBlock = 1;\r\n\r\n        emit BlockSubmitted(_root, block.timestamp);\r\n    }\r\n\r\n    /**\r\n     * @dev Allows anyone to deposit funds into the Plasma chain.\r\n     */\r\n    function deposit() public payable {\r\n        // Only allow up to CHILD_BLOCK_INTERVAL deposits per child block.\r\n        require(currentDepositBlock < CHILD_BLOCK_INTERVAL, \"Deposit limit reached.\");\r\n\r\n        bytes32 root = keccak256(abi.encodePacked(msg.sender, address(0), msg.value));\r\n        uint256 depositBlock = getDepositBlock();\r\n        plasmaBlocks[depositBlock] = PlasmaBlock({\r\n            root: root,\r\n            timestamp: block.timestamp\r\n        });\r\n        currentDepositBlock = currentDepositBlock.add(1);\r\n\r\n        emit Deposit(msg.sender, depositBlock, ETHEREUM, msg.value);\r\n    }\r\n\r\n    event Print(uint _num);\r\n\r\n    /**\r\n     * @dev Starts an exit from a deposit.\r\n     * @param _depositPos UTXO position of the deposit.\r\n     * @param _token Token type to deposit.\r\n     * @param _amount Deposit amount.\r\n     */\r\n    function startDepositExit(\r\n        uint256 _depositPos,\r\n        address _token,\r\n        uint256 _amount\r\n    )\r\n        public payable onlyWithValue(EXIT_BOND)\r\n    {\r\n        uint256 blknum = _depositPos / 1000000000;\r\n        require(blknum % CHILD_BLOCK_INTERVAL != 0, \"Referenced block must be a deposit block.\");\r\n        bytes32 root = plasmaBlocks[blknum].root;\r\n        bytes32 depositHash = keccak256(msg.sender, _token, _amount);\r\n        require(root == depositHash, \"Root hash must match deposit hash.\");\r\n\r\n        addExitToQueue(_depositPos, msg.sender, _token, _amount, plasmaBlocks[blknum].timestamp);\r\n    }\r\n\r\n    /**\r\n     * @dev Allows the operator withdraw any allotted fees. Starts an exit to avoid theft.\r\n     * @param _token Token to withdraw.\r\n     * @param _amount Amount in fees to withdraw.\r\n     */\r\n    function startFeeExit(address _token, uint256 _amount) public payable onlyOperator onlyWithValue(EXIT_BOND) {\r\n        addExitToQueue(currentFeeExit, msg.sender, _token, _amount, block.timestamp + 1);\r\n        currentFeeExit = currentFeeExit.add(1);\r\n    }\r\n\r\n    /**\r\n     * @dev Starts to exit a specified utxo.\r\n     * @param _utxoPos The position of the exiting utxo in the format of blknum * 1000000000 + index * 10000 + oindex.\r\n     * @param _txBytes The transaction being exited in RLP bytes format.\r\n     * @param _proof Proof of the exiting transactions inclusion for the block specified by utxoPos.\r\n     * @param _sigs Both transaction signatures and confirmations signatures used to verify that the exiting transaction has been confirmed.\r\n     */\r\n    function startExit(\r\n        uint256 _utxoPos,\r\n        bytes _txBytes,\r\n        bytes _proof,\r\n        bytes _sigs\r\n    )\r\n        public payable onlyWithValue(EXIT_BOND)\r\n    {\r\n        uint256 blknum = _utxoPos / 1000000000;\r\n        uint256 txindex = (_utxoPos % 1000000000) / 10000;\r\n        uint256 oindex = _utxoPos - blknum * 1000000000 - txindex * 10000;\r\n\r\n        // Check the sender owns this UTXO.\r\n        var exitingTx = _txBytes.createExitingTx(oindex);\r\n        require(msg.sender == exitingTx.exitor, \"Sender must be exitor.\");\r\n\r\n        // Check the transaction was included in the chain and is correctly signed.\r\n        bytes32 root = plasmaBlocks[blknum].root;\r\n        bytes32 merkleHash = keccak256(keccak256(_txBytes), ByteUtils.slice(_sigs, 0, 130));\r\n        require(Validate.checkSigs(keccak256(_txBytes), root, exitingTx.inputCount, _sigs), \"Signatures must match.\");\r\n        require(merkleHash.checkMembership(txindex, root, _proof), \"Transaction Merkle proof is invalid.\");\r\n\r\n        addExitToQueue(_utxoPos, exitingTx.exitor, exitingTx.token, exitingTx.amount, plasmaBlocks[blknum].timestamp);\r\n    }\r\n\r\n    /**\r\n     * @dev Allows anyone to challenge an exiting transaction by submitting proof of a double spend on the child chain.\r\n     * @param _cUtxoPos The position of the challenging utxo.\r\n     * @param _eUtxoIndex The output position of the exiting utxo.\r\n     * @param _txBytes The challenging transaction in bytes RLP form.\r\n     * @param _proof Proof of inclusion for the transaction used to challenge.\r\n     * @param _sigs Signatures for the transaction used to challenge.\r\n     * @param _confirmationSig The confirmation signature for the transaction used to challenge.\r\n     */\r\n    function challengeExit(\r\n        uint256 _cUtxoPos,\r\n        uint256 _eUtxoIndex,\r\n        bytes _txBytes,\r\n        bytes _proof,\r\n        bytes _sigs,\r\n        bytes _confirmationSig\r\n    )\r\n        public\r\n    {\r\n        uint256 eUtxoPos = _txBytes.getUtxoPos(_eUtxoIndex);\r\n        uint256 txindex = (_cUtxoPos % 1000000000) / 10000;\r\n        bytes32 root = plasmaBlocks[_cUtxoPos / 1000000000].root;\r\n        bytes32 txHash = keccak256(_txBytes);\r\n        bytes32 confirmationHash = keccak256(txHash, root);\r\n        bytes32 merkleHash = keccak256(txHash, _sigs);\r\n        address owner = exits[eUtxoPos].owner;\r\n\r\n        // Validate the spending transaction.\r\n        require(owner == ECRecovery.recover(confirmationHash, _confirmationSig), \"Confirmation signature must be signed by owner.\");\r\n        require(merkleHash.checkMembership(txindex, root, _proof), \"Transaction Merkle proof is invalid.\");\r\n\r\n        // Delete the owner but keep the amount to prevent another exit.\r\n        delete exits[eUtxoPos].owner;\r\n        msg.sender.transfer(EXIT_BOND);\r\n    }\r\n\r\n    /**\r\n     * @dev Determines the next exit to be processed.\r\n     * @param _token Asset type to be exited.\r\n     * @return A tuple of the position and time when this exit can be processed.\r\n     */\r\n    function getNextExit(address _token) public view returns (uint256, uint256) {\r\n        return PriorityQueue(exitsQueues[_token]).getMin();\r\n    }\r\n\r\n\r\n    event ExitFinal(address _seller,uint _paid);\r\n\r\n    function finalizeExits(address _token, uint256 _withdrawalMax) public {\r\n        uint256 utxoPos;\r\n        uint256 exitableAt;\r\n        require(ETHEREUM == _token, \"Token must be ETH.\");\r\n        (exitableAt, utxoPos) = getNextExit(_token);\r\n        exitableAt = 1;\r\n        PriorityQueue queue = PriorityQueue(exitsQueues[_token]);\r\n        Exit memory currentExit = exits[utxoPos];\r\n        uint256 paid;\r\n        while (exitableAt < block.timestamp && paid < _withdrawalMax) {\r\n            paid++;\r\n            currentExit = exits[utxoPos];\r\n            PlasmaToken token = PlasmaToken(currentExit.plasmaToken);\r\n            uint256 add_count = token.addressCount(); //We need to make it so this can't get too big\r\n            uint256 balance;\r\n            address holder;\r\n            for(uint256 i=0;i<add_count;i++){\r\n                (balance, holder) = token.getBalanceandHolderbyIndex(i);\r\n                token.transferFrom(holder,address(this),balance);\r\n                holder.transfer(balance);\r\n            }\r\n            popWithdrawal(currentExit.plasmaToken);\r\n            if (currentExit.owner != address(0)) {\r\n                currentExit.owner.transfer(EXIT_BOND);\r\n            }\r\n            queue.delMin();\r\n            delete exits[utxoPos].owner;\r\n            if (queue.currentSize() > 0) {\r\n                (exitableAt,utxoPos) = getNextExit(_token);\r\n            } else {\r\n                return;\r\n            }\r\n        }\r\n        emit ExitFinal(msg.sender,paid);\r\n    }\r\n\r\n    function popWithdrawal(address _token) internal {\r\n        uint256 tokenIndex = openWithdrawalIndex[_token];\r\n        uint256 lastTokenIndex = openWithdrawals.length.sub(1);\r\n        address lastToken = openWithdrawals[lastTokenIndex];\r\n        openWithdrawals[tokenIndex] = lastToken;\r\n        openWithdrawalIndex[lastToken] = tokenIndex;\r\n        openWithdrawals.length--;\r\n    }\r\n\r\n\r\n    /*\r\n     * Public view functions\r\n     */\r\n\r\n    /**\r\n     * @dev Queries the child chain.\r\n     * @param _blockNumber Number of the block to return.\r\n     * @return Child chain block at the specified block number.\r\n     */\r\n    function getPlasmaBlock(uint256 _blockNumber) public view returns (bytes32, uint256) {\r\n        return (plasmaBlocks[_blockNumber].root, plasmaBlocks[_blockNumber].timestamp);\r\n    }\r\n\r\n    /**\r\n     * @dev Determines the next deposit block number.\r\n     * @return Block number to be given to the next deposit block.\r\n     */\r\n    function getDepositBlock() public view returns (uint256) {\r\n        return currentChildBlock.sub(CHILD_BLOCK_INTERVAL).add(currentDepositBlock);\r\n    }\r\n\r\n    /**\r\n     * @dev Returns information about an exit.\r\n     * @param _utxoPos Position of the UTXO in the chain.\r\n     * @return A tuple representing the active exit for the given UTXO.\r\n     */\r\n    function getExit(uint256 _utxoPos) public view returns (address, address, uint256) {\r\n        return (exits[_utxoPos].owner, exits[_utxoPos].token, exits[_utxoPos].amount);\r\n    }\r\n\r\n\r\n    /*\r\n     * Private functions\r\n     */\r\n\r\n    /**\r\n     * @dev Adds an exit to the exit queue.\r\n     * @param _utxoPos Position of the UTXO in the child chain.\r\n     * @param _exitor Owner of the UTXO.\r\n     * @param _token Token to be exited.\r\n     * @param _amount Amount to be exited.\r\n     * @param _created_at Time when the UTXO was created.\r\n     */\r\n    function addExitToQueue(\r\n        uint256 _utxoPos,\r\n        address _exitor,\r\n        address _token,\r\n        uint256 _amount,\r\n        uint256 _created_at\r\n    )\r\n        private\r\n    {\r\n        // Check that we're exiting a known token.\r\n        require(exitsQueues[_token] != address(0), \"Must exit a known token.\");\r\n\r\n        // Check exit is valid and doesn't already exist.\r\n        require(_amount > 0, \"Exit value cannot be zero.\");\r\n        require(exits[_utxoPos].amount == 0, \"Exit cannot already exist.\");\r\n\r\n        // Calculate priority.\r\n        uint256 exitableAt = Math.max(_created_at + 2 weeks, block.timestamp + 1 weeks);\r\n        PriorityQueue queue = PriorityQueue(exitsQueues[_token]);\r\n        queue.insert(exitableAt, _utxoPos);\r\n        address new_token = createClone();\r\n        PlasmaToken Token = PlasmaToken(new_token);\r\n        Token.init(_amount, msg.sender);\r\n\r\n        exits[_utxoPos] = Exit({\r\n            owner: _exitor,\r\n            token: _token,\r\n            plasmaToken: new_token,\r\n            amount: _amount\r\n        });\r\n        \r\n        openWithdrawalIndex[new_token] = openWithdrawals.length;\r\n        openWithdrawals.push(new_token);\r\n        emit ExitStarted(msg.sender, _utxoPos, new_token,_token, _amount);\r\n    }\r\n\r\n    /**\r\n    *@dev Creates factory clone\r\n    *@param _target is the address being cloned\r\n    *@return address for clone\r\n    */\r\n    function createClone() internal returns (address result) {\r\n        bytes memory clone = hex\"600034603b57603080600f833981f36000368180378080368173bebebebebebebebebebebebebebebebebebebebe5af43d82803e15602c573d90f35b3d90fd\";\r\n        bytes20 targetBytes = bytes20(target);\r\n        for (uint256 i = 0; i < 20; i++) {\r\n            clone[26 + i] = targetBytes[i];\r\n        }\r\n        assembly {\r\n            let len := mload(clone)\r\n            let data := add(clone, 0x20)\r\n            result := create(0, data, len)\r\n        }\r\n    }\r\n\r\n//    function getUserBalance(address _owner, address _withdrawal) {\r\n//        withdrawal = PlasmaToken(openWithdrawals[_withdrawal]);\r\n//        return withdrawal.balanceOf[_owner];\r\n//    }\r\n}\r\n",
  "sourcePath": "C:\\company\\code\\tpe\\contracts\\RootChain.sol",
  "compiler": {
    "name": "solc",
    "version": "0.4.24+commit.e67f0147.Emscripten.clang"
  },
  "schemaVersion": "2.0.1",
  "updatedAt": "2018-10-07T06:40:51.634Z"
}